:10000000F85F002011040000812800008128000012
:10001000812800008128000081280000812800003C
:10002000812800008128000081280000812800002C
:10003000812800008128000081280000812800001C
:10004000812800008128000081280000812800000C
:10040000FFFFFFFFFFFFFFFFFFFFFFFFFEFFFFFFFD
:1004100062B604F02DFCFEE70121C206D20E914027
:10042000824A116070470121C206D20E9140804A73
:100430001160704780B500220021482001F08AF940
:1004400000220021492001F085F9002200214A20E4
:1004500001F080F9002200214B2001F07BF900F02F
:1004600032F801F06FF91620FFF7DDFF71480168DF
:1004700032204143002001F0FBF96F49262001F0B2
:100480004DFA6E490E2001F061FA6D492E2001F0FF
:1004900045FA1E20FFF7C0FF1620FFF7BDFF694891
:1004A00000780028FBD0B24801F004FB66492E20FA
:1004B00001F034FAAF49102001F030FA00F03AFBB5
:1004C00000F0C8F801BD80B5482001F0AAF9002865
:1004D0000BD11920A84908701A20A84908701820C3
:1004E000A74908701920A7490870492001F099F917
:1004F00000280CD11E20A04908701F209F490870B9
:1005000016209F4908701E209E49087022E04A204C
:1005100001F087F900280CD121209749087022208A
:100520009649087015209649087021209549087051
:1005300010E04B2001F075F900280BD124208E49E2
:10054000087025208D49087016208D4908702420D8
:100550008C49087001BD78B56B468B4C25881D8091
:100560001400621E002C4ED00C782300491CDBB214
:100570001C00E4116D462C5D0470401CDBB21C00B5
:10058000A4112500ED07ED0F6C46645D0470401C5E
:10059000DBB21C0064112500ED07ED0F6C46645DB5
:1005A0000470401CDBB21C0024112500ED07ED0F88
:1005B0006C46645D0470401CDBB21C00E410250036
:1005C000ED07ED0F6C46645D0470401CDBB21C004F
:1005D000A4102500ED07ED0F6C46645D0470401C0F
:1005E000DBB21C0064102500ED07ED0F6C46645D66
:1005F0000470401CDBB21C00E407E40F6D462C5D68
:100600000470401CACE771BD38B500245F48056834
:100610000020C0435D490860062004002800E04037
:10062000C00701D501F07BFA31BD000000E100E018
:1006300080E100E0ECFEFF1FB1160000130109008D
:10064000DD16000057FFFF1F0906000080B501F00E
:100650008FFA01BD38B501F0A0FA96229200444904
:100660004B48FFF778FF4B480078002802D100F094
:100670009DF80CE047480078012802D100F060FBAB
:1006800005E044480078022801D100F009FE32203C
:100690000500EDB21E2D25DBEDB23F49495D4D2928
:1006A0001ADB02210C00E4B24F2C0DDA3B49E4B214
:1006B000EDB250226A43364B9A181219515CFF2949
:1006C00000D1401C641CEEE7C0B24D2804DB344965
:1006D0000978491C324A11700021EDB22E4A515559
:1006E0006D1ED6E72E480078002806D001202D493F
:1006F000087000202A4908701CE02648007800286D
:100700000AD128480078012814D100202549087012
:100710000120204908700DE01E480078012809D109
:1007200020480078012805D100201E4908700020CB
:10073000184908701C480078002802D100F036FAE9
:1007400089E719480078012802D100F0F1FC82E71E
:1007500015480078022802D100F004FD7BE712481A
:100760000078032800D076E700F022FD73E7000050
:10077000FCE6FF1F4D06000048FFFF1F49FFFF1F5B
:100780004AFFFF1F4BFFFF1F06280000A0900440F8
:1007900054E9FF1F4DFFFF1F18FEFF1F50FBFFFF17
:1007A0004FFFFF1F4CFFFF1F4EFFFF1F38B52820D4
:1007B000CE49088032200500EDB21E2D00DA97E107
:1007C00008200400E4B2482C17DAE4B2EDB250205D
:1007D0006843D4490818005DE4B2EDB25021694382
:1007E000D04A511809194978401AFF2803D1EDB2AF
:1007F000CD48445501E0641CE4E702200400E4B263
:100800004F2C28DAE4B2EDB250206843C5490818ED
:10081000005D002806D1EDB2C448405D401CEDB239
:10082000C2494855E4B2EDB250206843BD490818AA
:10083000005DE4B2EDB250216943BA4A511809197A
:100840004978401AFE21C943884202D1EDB2B84826
:100850004455641CD3E7EDB2B348405D002836D060
:10086000EDB2B348405D002831D0EDB2AE48405DF6
:10087000EDB2AF49495D401A002828D5EDB2AA482B
:10088000405DEDB2AA49495D401A0821C94388423A
:100890001DDBC0480078401CBE490870EDB2A2487C
:1008A000405DEDB2A249495D4018401C022101F0B3
:1008B0002FFAEDB202216943B74A50520020EDB23F
:1008C000994948550020EDB299494855FFE0EDB2ED
:1008D00002206843B049081840880400E4B2002CA4
:1008E00029D0E4B2EDB2502068438E490818005D6B
:1008F000E4B2EDB2502169438A4A51180919491EE0
:100900000978401AFF280ED1E4B2601EEDB2022130
:100910006943A24A5052EDB2022068439F49085AE7
:100920009F49087007E0DE20EDB2022169439B4A2F
:100930005052641ED2E7EDB202206843964908186F
:1009400040880400E4B24F2C29DAE4B2EDB2502022
:10095000684374490818005DE4B2EDB25021694360
:10096000704A511809194978401AFF280FD1E4B28A
:100970002000401CEDB2022169438A4A5052EDB278
:10098000022068438749085A8749087007E0DE203B
:10099000EDB202216943834A5052641CD2E7EDB2A2
:1009A000022068437D49085EDE2806D0EDB20220B1
:1009B00068437C49085EDE2875D1EDB202206843A9
:1009C0007649085EDE282FD1EDB2022068437549D2
:1009D000085EDE2828D0EDB2022068437149085A2B
:1009E00071490978401AEDB2022169436B4A5052AD
:1009F000EDB2022068436949085A69490870EDB2AE
:100A0000022068436749085EEDB202216943634AE8
:100A1000515E4018401C022101F07AF9EDB202212A
:100A200069435D4A505252E0EDB2022068435B498F
:100A3000085EDE2830D0EDB2022068435949085ED6
:100A4000DE2829D1EDB2022068435449085A54499E
:100A50000978401A4F30EDB202216943514A505291
:100A6000EDB2022068434F49085A4F490870EDB271
:100A7000022068434B49085EEDB202216943474AB0
:100A8000515E4018401C022101F042F9EDB20221F2
:100A90006943414A50521AE02820EDB202216943CD
:100AA0003D4A505213E0EDB2022068433D49085ED2
:100AB000EDB202216943394A515E4018401C0221BF
:100AC00001F026F9EDB202216943334A5052EDB2EA
:100AD000022068433049085EEDB250216943114A53
:100AE000511800220A546D1E66E600BF82FDFF1FEA
:100AF00028480078052805DB02208049087003207B
:100B00007F4908700020234908708B480278002133
:100B1000002001F091FA884802780221002001F0BB
:100B20008BFA31BD54E9FF1FA0FDFF1F18FEFF1F08
:100B3000DCFDFF1F80B50023724A0021002001F078
:100B4000BBF900236F4A0121002001F0B5F9002311
:100B50006C4A0221002001F0AFF90023694A032109
:100B6000002001F0A9F9744802780021002001F06A
:100B700063FA00220121002001F05EFA6E4802783B
:100B80000221002001F058FA00220321002001F088
:100B900053FA01BD52FFFF1F1CFDFF1F14FCFF1F76
:100BA00014E4FF1F98FCFF1F15E4FF1FF8B5322067
:100BB0000400E4B21E2C1ADB2820E4B202216143B7
:100BC000594A515A401AE4B2022161434E4A5052E6
:100BD000E4B2022060434C49085E01F0A9FA4B4997
:100BE000096801F0BEFA49490860641EE1E7474818
:100BF0000068474901F040FB4449086043480068E9
:100C000001F0A4FB43A20CCA01F0B9FB06000F00DF
:100C10003E48006801F09AFB32003B0001F0AFFB58
:100C200006000F003948006801F090FB32003B00DD
:100C300001F0A5FB06000F003448006801F086FBB8
:100C400036A20CCA01F09BFB02000B0030003900F9
:100C500001F0BAFC06000F002C48006801F076FB9A
:100C600032003B0001F04DFC01F025FD27490860F2
:100C700064202D49085E3C212B4A515E401A01F048
:100C800057FA2849096801F047FD01F09FFD2949FD
:100C900008803C202449085E282802D100202549EC
:100CA0000880224801681948006801F035FD204994
:100CB00001F057FA01F08AFD204908801B480168BD
:100CC0001248006801F028FD194901F04AFA0100B4
:100CD0000D0018480021405E01F02AFA290001F0B9
:100CE00040FA01F073FD1549088014480021425E66
:100CF0000021012001F0A0F9F1BD00004DFFFF1F10
:100D00004EFFFF1F204E000054FEFF1FD8FEFF1FA6
:100D10000000A841FA7E6ABC7493583FD200DE02FC
:100D2000098A8F3F18E4FF1F1CFDFF1F10E4FF1FFF
:100D30000000DC4246FFFF1F48FFFF1F44FFFF1F6C
:100D400038B52820C649088032200500EDB21E2D96
:100D500000DAB3E108200400E4B2482C17DAE4B268
:100D6000EDB250206843D3490818005DE4B2EDB2FB
:100D700050216943CF4A511809194978401AFF2870
:100D800003D1EDB2CC48445501E0641CE4E70220F5
:100D90000400E4B24F2C28DAE4B2EDB250206843EC
:100DA000C4490818005D002806D1EDB2CF48405D67
:100DB000401CEDB2CD494855E4B2EDB25020684335
:100DC000BC490818005DE4B2EDB250216943B94A4C
:100DD000511809194978401AFE21C943884202D1A5
:100DE000EDB2CE484455641CD3E7EDB2B248405D45
:100DF000002831D0EDB2C948405D00282CD0EDB2BA
:100E0000AD48405DEDB2C549495D401A002823D583
:100E1000EDB2A948405DEDB2C049495D401A0621D6
:100E2000C943884218DBEDB2A348405DEDB2BB492F
:100E3000495D4018401C022100F06AFFEDB202211A
:100E40006943B74A50520020EDB29B4948550020F3
:100E5000EDB2B24948551FE1EDB202206843B049F6
:100E6000081840880400E4B2002C29D0E4B2EDB2A6
:100E7000502068438F490818005DE4B2EDB250215C
:100E800069438C4A51180919491E0978401AFF28EC
:100E90000ED1E4B2601EEDB202216943A14A505264
:100EA000EDB2022068439F49085A9F49087007E045
:100EB000DE20EDB2022169439A4A5052641ED2E705
:100EC000EDB2022068439649081840880400E4B255
:100ED0004F2C29DAE4B2EDB2502068437549081866
:100EE000005DE4B2EDB250216943724A511809190C
:100EF0004978401AFF280FD1E4B22000401CEDB21F
:100F000002216943894A5052EDB202206843874961
:100F1000085A9349087007E0DE20EDB202216943C8
:100F2000824A5052641CD2E7EDB2022068437D49E8
:100F3000085EDE2807D0EDB2022068437B49085ED8
:100F4000DE2800D08EE0EDB2022068437549085ECD
:100F5000DE2837D1EDB2022068437449085EDE28EE
:100F600030D000208B4908708B480078401C8A499B
:100F70000870EDB2022068436C49085A7849097834
:100F8000401AEDB202216943664A5052EDB2022086
:100F900068436449085A64490870EDB20220684306
:100FA0006249085EEDB2022169435E4A515E401813
:100FB000401C022100F0ACFEEDB202216943584A08
:100FC000505269E0EDB2022068435649085EDE28BF
:100FD00038D0EDB2022068435449085EDE2831D192
:100FE0006C480078401C6B49087000206A49087002
:100FF000EDB2022068434B49085A4B490978401A20
:101000004F30EDB202216943484A5052EDB20220FE
:1010100068434649085A52490870EDB202206843B5
:101020004249085EEDB2022169433E4A515E4018D2
:10103000401C022100F06CFEEDB202216943384AE7
:10104000505229E00020534908700020524908708E
:101050002820EDB202216943314A50521CE000BF02
:1010600082FDFF1F00204B49087000204A4908708C
:10107000EDB2022068432D49085EEDB202216943BA
:10108000284A515E4018401C022100F041FEEDB29A
:1010900002216943224A5052EDB20220684320499E
:1010A000085EEDB250216943024A511800220A54E9
:1010B0006D1E4BE654E9FF1FA0FDFF1F3648007868
:1010C000082807DB35480078002814D1012034496E
:1010D000087010E02F480078082809DB2F480078B6
:1010E000002808D102202E49087004E018FEFF1FD6
:1010F00000202B490870002027490870002025494E
:101100000870284802780021002000F095FF25484B
:1011100002780221002000F08FFF31BDDCFDFF1FAF
:101120001CFDFF1F14FCFF1F14E4FF1F98FCFF1F92
:1011300080B587201C4908801B480021425E0021A1
:10114000012000F079FF00220021002000F074FF50
:10115000164802780221002000F06EFF01BD000059
:1011600015E4FF1F80B555200F4908800E48002167
:10117000425E0021012000F05FFF0C480278002150
:10118000002000F059FF00220221002000F054FF4F
:1011900001BD000051FFFF1F50FFFF1F2CEEFF1F7E
:1011A0004EFFFF1F4AFFFF1F44FFFF1F49FFFF1FA6
:1011B00010B532200400E4B21E2C1ADB2820E4B261
:1011C000022161432D4A515A401AE4B2022161437F
:1011D0002B4A5052E4B2022060432949085E00F0D5
:1011E000A7FF2849096800F0BCFF26490860641E73
:1011F000E1E7152020490978401A00F099FF010025
:101200002048006801F038F801F0E0FA00B200F080
:101210008FFF1C49086000201749087019480068B2
:10122000194901F0F1FA05D916480068174901F08B
:10123000FFFA0BD2164802780021002000F0FCFED5
:10124000134802780221002000F0F6FE11480168E0
:101250000C48006801F060FA0F4900F082FF01F0CD
:10126000B5FA0E4908800D480021425E0021012098
:1012700000F0E2FE10BD000053FFFF1F1CFDFF1F2A
:1012800054FEFF1FD8FEFF1F0100C0400000C0C079
:101290004BFFFF1F10E4FF1F0000DC4244FFFF1F55
:1012A00030B528209549088014200500EDB23C2D6A
:1012B00012DA82204001EDB291494919085C914946
:1012C000EDB28F4A5219515C401AFF2802D18E4864
:1012D000057001E06D1CE9E714200500EDB23C2D1E
:1012E00016DA82204001EDB285494919085C85492A
:1012F000EDB2834A5219515C401AFE21C94388421B
:1013000004D12800401CCD49087001E06D1CE5E7C0
:1013100032200400E4B21E2C00DAB8E17A480078EA
:10132000001F0500EDB2C5480078001D85421CDA9B
:10133000EDB2E4B25020604371490818405DEDB24F
:10134000E4B2502161436E4A511849194978401A54
:10135000FF2808D1E4B2D5480555E4B2D348005D72
:101360006949087001E06D1CDCE767480078001FE0
:101370000500EDB2B1480078001D85421FDAEDB2DC
:10138000E4B2502060435E490818405DEDB2E4B21B
:10139000502161435A4A511849194978401AFE218F
:1013A000C943884209D1E4B2D4480555E4B2D348D0
:1013B000005D401CA149087001E06D1CD9E7E4B252
:1013C000BA48005D002831D0E4B2CC48005D002866
:1013D0002CD0E4B2B548005DE4B2C849095D401ABA
:1013E000002823D5E4B2B148005DE4B2C349095DE9
:1013F000401A0621C943884218DBE4B2AB48005DBD
:10140000E4B2BE49095D4018401C022100F080FC96
:10141000E4B202216143BD4A50520020E4B2A34924
:1014200008550020E4B2B549085522E1E4B2022093
:101430006043B649081840880500EDB2002D29D058
:10144000EDB2E4B2502060432D490818405DEDB282
:10145000E4B2502161432A4A51184919491E0978BA
:10146000401AFF280ED1EDB2681EE4B2022161439A
:10147000A74A5052E4B202206043A549085AA54940
:10148000087007E0DE20E4B202216143A04A505216
:101490006D1ED2E7E4B2022060439C4908184088E0
:1014A0000500EDB24F2D31DAEDB2E4B250206043C9
:1014B00013490818405DEDB2E4B250216143104A6F
:1014C000511849194978401AFF280FD1EDB2280068
:1014D000401CE4B2022161438F4A5052E4B2022020
:1014E00060438D49085A8D4908700FE0DE20E4B250
:1014F00002216143884A50526D1CD2E782FDFF1FD2
:1015000054E9FF1F4110000055FFFF1FE4B2022005
:1015100060437F49085EDE2807D0E4B202206043C2
:101520007D49085EDE2800D08AE0E4B202206043F4
:101530007749085EDE2834D1E4B202206043764960
:10154000085EDE282DD076480078401C744908706B
:10155000E4B2022060437049085A70490978401A81
:10156000E4B2022161436A4A5052E4B2022060436D
:101570006749085A67490870E4B202206043664927
:10158000085EE4B202216143614A515E4018401C8A
:10159000022100F0BDFBE4B2022161435B4A5052DC
:1015A00067E0E4B2022060435949085EDE2835D086
:1015B000E4B2022060435849085EDE282ED1584824
:1015C0000078401C56490870E4B20220604350493C
:1015D000085A50490978401A4F30E4B20221614359
:1015E0004D4A5052E4B2022060434B49085A4B49DD
:1015F0000870E4B2022060434749085EE4B2022169
:101600006143434A515E4018401C022100F080FBB8
:10161000E4B2022161433D4A50522AE00020404991
:10162000087040480078401C3E4908702820E4B209
:1016300002216143354A50521BE000BF56FFFF1F95
:1016400037480078401C36490870E4B202206043F5
:101650003149085EE4B2022161432D4A515E4018CF
:10166000401C022100F054FBE4B202216143274AEE
:101670005052E4B2022060432449085EE4B2502193
:101680006143294A511800220A54641E42E6244844
:101690000078032805DB0020244908700020244935
:1016A000087000201E49087030BD0000A0FDFF1F1B
:1016B00000B52048006801280FD11F480078002895
:1016C00002D101201D49087000201B4908701948EB
:1016D0000068012101431748016000BD10B50024D6
:1016E0000E20040016480068E040C00705D5012020
:1016F000A0401349086000F003F810BDDCFDFF1F97
:101700000D480078401C0C49087070471CFDFF1FF5
:1017100014FCFF1F14E4FF1F98FCFF1F15E4FF1FBC
:1017200054FFFF1F53FFFF1F54E9FF1F4DFFFF1F13
:101730004EFFFF1F0C71034016E4FF1F57FFFF1FF2
:10174000A090044080B56E2364220021012000F0A7
:10175000B3FB01BD70B504000D0016006DB2002D85
:1017600015D1E4B220004011042148433E490858F5
:10177000E4B221004911042251433B4A51584969BE
:101780000122E306DB0E9A409143416142E0E4B25C
:10179000200040110421484333490858E4B2210095
:1017A000491104225143304A515849690122E30644
:1017B000DB0E9A400A434261F6B2002E15D1E4B224
:1017C000200040110421484327490858006801219E
:1017D000E206D20E91408843E4B22100491104226E
:1017E0005143214A5158086014E0E4B220004011EE
:1017F000042148431C49085801680120E206D20E22
:1018000090400843E4B22100491104225143164A92
:1018100051580860802149002000C0B200F096F8BD
:1018200070BD10B50400E4B220004011042148430B
:101830000D4908584069E106C90EC840C00703D5E4
:1018400092210A4801F008F8E4B220004011042176
:101850004843054908580169E006C00EC140080028
:10186000C007C00F10BD0000D8E5FF1F1C4E0000D0
:1018700038B504000D00002D03D124211B4800F0D1
:10188000EBFF1B48006880210904014318480160F0
:10189000002018490860681E64B210216143164A8E
:1018A000505064B21020604313490818C0680121E9
:1018B000014364B2102060430F4A1018C16064B243
:1018C000102060430C49081880680121884364B2E5
:1018D00010216143084A51188860032064B2102126
:1018E0006143054A5118886031BD0000F44E000084
:1018F0003C800440007003400071034010B50400B8
:1019000020008021890000F003FA002903D01E2165
:101910000B4800F0A1FF0B48046010BD38B504006F
:101920000D00084800680849884203D03021044867
:1019300000F092FF64B20420604303490D5031BDB2
:101940008C4E000008ED00E000E0FF1F10B4324AAA
:10195000126880239B000400E4B26409A34013438F
:101960002D4A1360C0B20200521104235A432B4B7C
:101970009A58A0320123C406E40EA3401360C0B2FB
:10198000C206D20E04235A43C0B203005B110424E2
:101990006343224CE358995010BC704710B41E4A60
:1019A000126880239B000400E4B26409A34013433F
:1019B000194A1360C0B20200521104235A43174B54
:1019C0009A58A0320123C406E40EA34013600A0013
:1019D000134911400A00C0B2C106C90E042359437D
:1019E000C0B203005B11042463430C4CE3585B5802
:1019F000E021C90019401143C0B2C206D20E04232F
:101A00005A43C0B203005B1104246343034CE35800
:101A1000995010BC704700003880044024E6FF1F36
:101A2000FFF8FFFF0121C206D20E9140994A1160D2
:101A300070470121C206D20E9140974A116070474B
:101A400070B440B210244443944D2C19A5688024EE
:101A500064042C4340B210254543904E7519AC6088
:101A60001C02240A40B2102545438C4E7519AC6007
:101A700040B210244443894D295140B210244443BC
:101A8000864D2C196260864C247880252543844C31
:101A9000257040B210244443804D2C19E568802401
:101AA000E4052C4340B2102545437C4E7519EC608B
:101AB00070BC704710B504007A48046000F08EF8DE
:101AC0000028FBD000F002F8002010BD00B583B064
:101AD0009620800001900120009007237148026841
:101AE0007149002000F011FF6D4800784006400E5B
:101AF0006B4908706D480068400040086B490860F9
:101B00000020FFF78FFF1E20FFF793FF6849072093
:101B1000FFF71CFF67490620FFF718FF07BD80B5D8
:101B200065480021405604281BD1032062490870F3
:101B30001E20FFF77EFF96239B005A4802685A49F1
:101B40000020FFF77DFF80205C490860574800684F
:101B5000802109060143554801600020FFF762FF1C
:101B600005E01E20FFF765FF02205349087001BD04
:101B700080B54E480068400040084C49086000208D
:101B8000FFF750FF01204C4908704D480068802144
:101B9000490401434A48016001BD80B5042046491B
:101BA00008700020C043454908601E20FFF73AFF37
:101BB00041480021405601280FD03F48002140569F
:101BC0000228F5D104203C4908700020C0433B495D
:101BD00008601E20FFF726FFEAE701BD10B582B0BE
:101BE000002400206946087000F05CFF802112206C
:101BF00001F0FEF8002804D1324801F08BF90020F2
:101C000046E0322001F0B4F90B220121684601F0D0
:101C100027F9002804D12C4801F07CF9002037E096
:101C200068460178294801F075F929480178294862
:101C300001F070F968460078212828D100200400BE
:101C400023480078A4B280B284421BD2A4B20220FE
:101C50006043214908184178A4B2022060431E4A1B
:101C6000105C80B201F0C4F8002809D1A4B20220AF
:101C700060431949095C194801F04CF9002007E05C
:101C8000641CDDE7164801F045F9012000E0002062
:101C900016BD000000E100E080E100E000810040AE
:101CA00000100240F0FEFF1F12F10F400C810040B7
:101CB000020102001201090050E6FF1FA09004403B
:101CC0000881004068500000D8500000A84F000074
:101CD000B8E6FF1F0050000054E6FF1F80500000D0
:101CE000CC4F0000F446002804D4494200F013F819
:101CF000404260474042002905D45FD000F00BF815
:101D0000404249426047494200F005F84942604775
:101D100003460B43E6D40022030A8B420BD203098D
:101D20008B4219D243088B422ED2411A00D201466F
:101D3000524110467047FF2209023FD012068B42E3
:101D400005D3121209028B4201D3121209020309B0
:101D50008B4219D300E0090AC3098B4201D3CB019E
:101D6000C01A524183098B4201D38B01C01A5241E0
:101D700043098B4201D34B01C01A524103098B42E4
:101D800001D30B01C01A5241C3088B4201D3CB00CF
:101D9000C01A524183088B4201D38B00C01A5241B2
:101DA00043088B4201D34B00C01A5241884200D3F2
:101DB000401A5241CFD201461046704708B501F093
:101DC000EDF808BD38B504000D0064B2002C03D056
:101DD000022C55D039D36EE0964800688021490422
:101DE0000143944801606DB2002D08D0022D12D03D
:101DF0000BD3042D1BD014D3052D1ED023E0C021FE
:101E000089009820FFF7A2FD1EE0C02189009920DB
:101E1000FFF79CFD18E0C02189009D20FFF796FD8B
:101E200012E0C02189009E20FFF790FD0CE0C02148
:101E300089009F20FFF78AFD06E0C02189009A20D3
:101E4000FFF784FD00E036E035E07A480068802145
:101E500089040143774801606DB2002D02D0012D45
:101E600006D00BE0C02189000C20FFF76FFD06E0D3
:101E7000C02189000D20FFF769FD00E01BE01AE09A
:101E80006C4800688021C90401436A4801606DB252
:101E9000002D02D0012D06D00BE0C02189000120C9
:101EA000FFF754FD06E0C02189000220FFF74EFD38
:101EB00000E000E0FFE731BDFCB583B006000F0095
:101EC00076B2002E02D17FB2062F0CDB76B2012E45
:101ED00002D076B2022E02D17FB2022F03DBD821CC
:101EE0008C4800F0B9FC390049B2300040B2FFF72D
:101EF00069FF89480068894948434010019001986A
:101F0000000C0399FFF707FF040000200500A4B2AE
:101F100020002841012801DB6D1CF8E7EDB2082DF7
:101F200003DBF3217B4800F097FC0198E84003991C
:101F3000FFF7F1FE040076B2002E03D0022E18D077
:101F40000BD321E00498A4B22100491C484364212A
:101F5000FFF7E1FE6946088016E00498A4B221006C
:101F6000491C4843FA218900FFF7D5FE69460880DD
:101F70000AE00498A4B22100491C48436421FFF7F9
:101F8000CAFE69460880FFE77FB20820784376B230
:101F900004217143624A515809187FB208207843DE
:101FA00076B2042272435E4B9A581018C06804221D
:101FB0009043C8607FB20820784376B20421714311
:101FC000574A515808182821C16056480068564998
:101FD000014054480160534800688021490401438E
:101FE00050480160EDB26907490F0820084376B2F6
:101FF000042171434A4A51580860A4B276B20420C1
:1020000070434749085884607FB20820784376B20D
:1020100004217143424A51580818694609880161F0
:10202000002076B2042171433D4A5158486005B002
:10203000F0BD00003C800440F8B505000F0016001C
:1020400000246DB2002D02D17FB2062F0DDB6DB2E0
:10205000012D02D06DB2022D02D17FB2022F04DB1E
:10206000FF2130312B4800F0F7FB6DB2002D03D07B
:10207000022D12D008D318E0652E04D39A2149000E
:10208000244800F0E9FB10E02848864204D39C2154
:102090004900204800F0E0FB07E0652E04D39E21B4
:1020A00049001C4800F0D8FBFFE76DB204206843EC
:1020B0001B49085880680400002CF6D06DB2002D32
:1020C00003D0022D12D008D318E02000401C70432A
:1020D0006421FFF720FE009010E02000401C7043B8
:1020E000FA218900FFF717FE009007E02000401C4E
:1020F00070436421FFF70FFE0090FFE77FB20820D6
:1021000078436DB204216943054A51580818009973
:102110000161F1BD284F0000E0FEFF1F40420F00AB
:1021200038E6FF1F04800440FFFFFFFCE9030000C6
:102130009D21020008D5F446524200F005F8012224
:10214000D2071043604700000AD002D4491E9218FB
:10215000FCD5C905100A1206524100D3012A484194
:1021600070470122D20703004B402ED4431A01D2FC
:10217000C01AC91830B44B180418240E1B0E22D0F4
:10218000FF2C20D0E31A182B1DDC09021143C40DCB
:10219000641E0002104394461925ED1A0A00AA4055
:1021A000D940451801D36D08A41CE405D209280ABA
:1021B0002D062A436546AA41604103181B0EFF2BDA
:1021C00001D3C00DC00530BC7047514001E0514003
:1021D000CCE7431A03D2C01AC9185040514030B45A
:1021E0004B18090211430418240E1B0E40D0FF2C7B
:1021F0003AD025009D410BD31ED8C50D4002401A90
:102200000BD3ED050100400AC90591416841DAE7A9
:10221000C50D40024918401AD5D001214008491C7B
:102220000018FCD58C4204D36D1A000AED05401944
:10223000C9E7E8051040C6E7182DC4DCAC1C0D004A
:10224000E140E5414D40012D4941C40D00021043DC
:10225000451A01D46D199543641EE405280A2D061C
:102260009541604130BC7047FF2BACD1D843AAE701
:102270002442A8D10020A6E730B405004D40012239
:10228000D20715404B180418240E28D01B0E2FD04F
:10229000FF2C34D0FF2B37D0E41A00020902104380
:1022A000114343084808D10D1B1A02D2641EDB18E3
:1022B0001B18DB18834200D31B1A4941F9D37F3422
:1022C00026DDFE2C08DAE4054808C90719439141C8
:1022D0006041284330BC7047FF20C005F9E7280063
:1022E0001B0E03D0FF2BF5D14902F3D0D043F1E709
:1022F000FF2C01D14002F9D1FF20C005E9E74002DF
:10230000F4D1FF2BF8D1F1E728004902E2D0EDE744
:102310000B0200202442DCD15B129B1CD9D9D805CA
:10232000D7E738B4012100220368001D002B0BD031
:102330000468001D0C4202D04D466D1E64192260D7
:10234000241D1B1FF0D0FAE732BC70470122120691
:102350000118CA420AD28A420DD838221206090947
:102360008918C20FD20711434007704700D04908AF
:102370000909014301E0C10FC90700207047F0B50A
:102380000E005E400125ED072E40B446AE0ADF1870
:102390004C18F44208D2F7420ED2640D01D07F0DE2
:1023A00012D100206146F0BD05D1F74201D87F0D62
:1023B00005D10020C143F0BDFBD1640DF9D0002050
:1023C000C143490549088FE0E419C902DB022943EA
:1023D0002B43DB0A460DC00231438E4630B487B230
:1023E00095B27D432E0CADB2140C7C43A419260C7F
:1023F000240425439CB27C43A419190C7943270C6F
:10240000C919A4B20F043C43090C000C97B247430E
:102410002E0CBE193543ADB2170C4743360CBF190D
:10242000A6B2BF193E043543240C3E0C36199FB2A8
:102430004743BF19BCB23E0C89191F0C47437F1894
:102440003E043443390C704680B297B247432E0C99
:10245000BE193543ADB2170C4743360CBF19A6B2AF
:10246000BF193E043543240C3E0C36199FB2474336
:10247000BF19BCB23E0C89191F0C47437F183E049C
:102480003443390C77463F0C90B278432E0C8019B8
:102490000604ADB22E43050CA0B22D18120C7A43DF
:1024A0005019020C80B2240CA4189AB27A43121963
:1024B00014042043120C89181B0C7B43C91830BC30
:1024C000EF0A394203D1B61940414941641E6F12E7
:1024D000BF0DE41B0BDBFF19BC4211DA24050027FA
:1024E0004208AE417841614166463143F0BD641C0B
:1024F00005D1401C6141CF0201D34908F4E750E700
:102500005DE7F0B40125ED070F005F404FD48B422B
:1025100000D1824205D98446100062468C461900DB
:102520006346DF184C18640D7F0D3AD0661C7605A3
:1025300037D0E61B352E34DCDB022B43DB0A0C0DD7
:10254000C9022943C912202E0DDB1700203E06D0F8
:102550001F00F741F3405F400026012A7741C01871
:1025600071410DD217E01700F741F2405740F34197
:102570005A40B340F3405A400026801859410AD3CC
:10258000A21C52050FD0C207012F7241170040084C
:10259000CB0718434908641C24054208AF41704129
:1025A0006141F0BC7047641C21050020F9E76B40D5
:1025B00010E06B40ABE7F742F3D1E943F1E7244287
:1025C000EFD100200021ECE7F0B40125ED070F006A
:1025D0005F40EED40C00871A9C4105D2C01BA1417C
:1025E000D219634169406B40AE0ADF184C18F442BF
:1025F000E1D2640D7F0DE2D0E61B362ED1DCDB028A
:102600002B43DB0AA4460C0DC9022943C90A012E3B
:1026100028DC04D1D6075208DF073A435B08EF0AEB
:1026200076429041994114D039423BD1B61940418C
:102630004941761C394204D1761C0018494139427F
:10264000FAD0B9436746B74208D9A41B24052143F1
:10265000A7E70042EAD13642E8D1A2E7E40AE1075F
:1026600000209EE7202E0BDD203E1F00F340F741A7
:102670005F40012A002257417E42984191410BE080
:102680001700F741F2405740F3415A40B340F3403E
:102690005A407E42904199410A0303D2641EB61902
:1026A000404149410027641E24054208AE4178415B
:1026B0006141F0BC7047012252054B18DA4201D942
:1026C000581570475B0D0722D2019B1A10D9FF2BBA
:1026D0001DD2DB050122D2070A4013430903020D74
:1026E0001143490AC200524100D9491CC818704719
:1026F0000AD1800A0A0302435212921C04D9D3075A
:102700000B40D00518437047C80FC0077047C80F6B
:102710000002FF30C005704730B405004D40012273
:10272000D20715404B180418240E30D01B0E34D09D
:10273000FF2C36D0FF2B3CD0E418000209021043D6
:102740001143000A090A9446C2B24A43000AC3B2BE
:102750004B43000A4843110A5B18190A12061B0C66
:102760001A43120A091801D44918641E080A7F3C4A
:1027700023DBFE2C08DAE405090611436346994180
:102780006041284330BC7047FF20C005F9E72800AE
:102790001B0EFF2BF6D1D043F4E72800FF2CF1D11C
:1027A000F9E74002F7D1FF2B01D14902F3D1E0054F
:1027B000E7E7D8054902E4D0EDE743020020641CB6
:1027C000DFD15B129B1CDCD9D805DAE70122D207E6
:1027D0000118090E7F3910D449421F310FD4001857
:1027E00005D2C0011043C84000D5D0437047C00196
:1027F0001043C84005D44042704700207047004253
:10280000F3D510007047FF000CB401221206031824
:10281000DA4207D84B18DA4204D802000A43921869
:1028200002D281420CBC7047FCD088420CBC70477D
:102830000CB4012212060318DA4207D84B18DA4208
:1028400004D802000A43921802D288420CBC704796
:10285000FCD08142FAE7000038B504000D002A00E0
:1028600021000E4800F056FBFEE738B504000D00CD
:10287000210049B2002000F005FD200032BD704764
:1028800010B507480468E4B20920604305490A18F6
:10289000E4B22100044800F03DFB10BD844F00006D
:1028A00004ED00E01CE4FF1FE04D0000F8B505005A
:1028B0000F00280080094607760F2020464368460F
:1028C000290010398906890E082251434170684653
:1028D0004078301804006846082179436118491E81
:1028E000017068460078E4B2A0420DD300220021B6
:1028F0002000C0B2FEF72EFF812149002000C0B2A7
:10290000FFF724F8641CECE7F1BDFEB504000D00F0
:10291000694620200E56099F76B2012E01D1012072
:102920000AE076B2022E01D1022005E076B2002E36
:1029300001D1042000E000206946087076B2012E23
:1029400005D14748854202D34648A8421CD276B2F8
:10295000022E09D14248854206D34348A84203D3F8
:10296000A807800F03280FD176B2002E08D13C486B
:10297000854205D33D48A84202D32800800703D0F2
:1029800060213B48FFF768FF80200002874203D3A5
:1029900062213748FFF760FF364800688021490010
:1029A0000143344801603448006802210143324841
:1029B0000160002064B23149085564B210206043C0
:1029C0002F490818816880204004084364B2102110
:1029D00061432B4A5118886064B210206043284933
:1029E0000D50019864B210216143254A5118486086
:1029F00076B23005C0218903014076B27004C0224E
:102A0000D20202400A431F48104364B210216143BE
:102A10001B4A5118C8603802000A64B21021614391
:102A2000174A511888606846007AC0B240093130B0
:102A30008021014364B21148015513496846007A68
:102A4000FEF784FF684601782800FFF72FFF64B285
:102A50000A48005D4006400E64B208490855F7BDBB
:102A600010F00F4013F10F4012F10F4010F10F4022
:102A7000C04E0000408004403C80044000100240F2
:102A800000810040800008600001010080B56946B7
:102A90000880694609884A1E6B461A8089B2002957
:102AA000F7D101BD80B5012201211120FEF752FEB0
:102AB000012201211020FEF74DFE43211120FEF7D7
:102AC0006DFF43211020FEF769FF01BD80B5A248CC
:102AD00000688021490201439F4801609E480068C8
:102AE0008021890201439C480160C8204000FFF713
:102AF000CDFFBA480068BA490140B8480160C82013
:102B00004000FFF7C3FFB74800680100C903C90FC1
:102B1000002908D1B1480068802149020143AF482B
:102B20000160002027E0AD48006880214902014390
:102B3000AA48016088480068A949014086480160A8
:102B4000C8204000FFF7A2FF83480068A649014063
:102B500081480160A34800680100C903C90F00292A
:102B600008D09E4800688021490201439B480160CB
:102B7000002000E0012002BD80B5774800689A4936
:102B800001407548016074480068954901407248E9
:102B90000160C8204000FFF779FF6F48006880217E
:102BA000890201436C480160C8204000FFF76EFFB6
:102BB0006948006880214902014367480160C820D4
:102BC0004000FFF763FF01BD80B563480068864998
:102BD000014061480160C8204000FFF757FF5E4890
:102BE00000687F4901405C480160C8204000FFF751
:102BF0004DFF594800688021890201435648016011
:102C0000C8204000FFF742FF534800687649014062
:102C100051480160C8204000FFF738FF01BD80B572
:102C20004D480068704901404B480160C820400091
:102C3000FFF72CFF484800688021490201434648BD
:102C40000160C8204000FFF721FF43480068802151
:102C50008902014340480160C8204000FFF716FF89
:102C60003D480068604901403B480160C820400081
:102C7000FFF70CFF01BD80B5374800685A49014095
:102C80003548016055480068554901405348016086
:102C9000C8204000FFF7FAFE2F4800688021890213
:102CA00001432D480160C8204000FFF7EFFE4D486A
:102CB00000680100C903C90F00290ED04748006809
:102CC0008021490201434548016023480068464984
:102CD00001402148016000200DE04048006880214B
:102CE000490201433D4801601B4800683E490140DC
:102CF00019480160012002BD38B5040008252800EC
:102D0000451EC0B2002826D0200607D5124800680C
:102D10008021490201431048016005E00E48006827
:102D20002F4901400C4801606400C8204000FFF7B3
:102D3000ADFE094800688021890201430648016010
:102D4000C8204000FFF7A2FE034800682649014062
:102D500001480160D3E731BD00F00F4038B50824C9
:102D600000251E4800681E4901401C4801602000E3
:102D7000441EC0B2002820D06D001C4800681A49CB
:102D800001401A480160C8204000FFF77FFE174845
:102D9000006880218902014314480160C820400076
:102DA000FFF774FE0F4800680100C903C90F00292E
:102DB000DDD0280001250543D9E7084800688021B7
:102DC000490201430548016008480068064901407E
:102DD00006480160EDB2280032BD000014F00F403B
:102DE000FFFFFEFF10F00F40FFFFFDFF00F00F4060
:102DF00070B504000E0000253100C9B2200080B279
:102E000000F00AF8002805D16D1CEDB2142DF3D1A5
:102E1000002000E0012070BD38B505000C00FFF770
:102E200055FE002801D1002019E04220FFF764FF81
:102E3000FFF721FF002803D1FFF79EFE00200EE0E0
:102E40002800C0B2FFF758FFFFF715FF2000C0B2FF
:102E5000FFF752FFFFF70FFFFFF78EFE012032BD95
:102E6000F8B505000F00160000243200D2B2390078
:102E700089B2280000F00AF8002805D1641CE4B2E9
:102E80001E2CF2D1002000E00120F2BD70B504003C
:102E90000D001600FFF71AFE002801D1002037E0D0
:102EA0004220FFF729FFFFF7E6FE002803D1FFF7D6
:102EB00063FE00202CE03000C0B2FFF71DFFFFF7DB
:102EC000DAFEFFF759FEFFF701FE002801D10020CE
:102ED0001EE04320FFF710FFFFF7CDFE002803D1CF
:102EE000FFF74AFE002013E0ADB2002D0DD0FFF732
:102EF00035FF2070ADB2012D02D1FFF790FE01E049
:102F0000FFF762FE641C6D1EEEE7FFF735FE012041
:102F100070BD00000EB400B582B003A900916B46ED
:102F200002000121034878440A3000F0D5F90299E3
:102F300006B008477D21000010B50400002C16D013
:102F400080204004844203D329210F48FFF784FCEA
:102F500000200E4908600E48046000200D490860FA
:102F600005200A49086009480068C003FBD510BD68
:102F700010B504002000441E002804D00648006854
:102F8000FFF7DAFFF6E710BD544E000010E000E056
:102F900014E000E018E000E0E4FEFF1F70470000CE
:102FA000F1B584B00F00AE486946888169461020AB
:102FB0000856002803D0022825D012D335E0A948AE
:102FC00000688021C9000143A6480160C021890032
:102FD0000F20FEF7BBFCC02189000E20FEF7B6FCD7
:102FE00023E0A04800688021090101439D48016059
:102FF000C02189004320FEF7A9FCC021890044209C
:10300000FEF7A4FC11E097480068802149010143C4
:1030100094480160C02189006220FEF797FCC0211E
:1030200089006320FEF792FCFFE7694610200856EE
:10303000002800D0ABE08C4800688C4901408A48E9
:103040000160894800688A490143874801608948CE
:103050000078F321014087480170002086490870FC
:1030600086480068864948430221FEF751FE0290D7
:1030700004200400E4B2212C64DA0298E4B22100B6
:10308000491C7943FEF747FE0600B6B28020800156
:10309000864255DA0298B6B2E4B22100491C714367
:1030A000FEF739FE01900198C01B012803DB01984F
:1030B0003900451A02E00198C01B4542ADB2002D0F
:1030C00005D168460680E4B2684644803AE0684626
:1030D0008089ADB2854206D2684685816846068001
:1030E000E4B268464480761CB6B2802080018642F5
:1030F00026DA0298B6B2E4B22100491C7143FEF709
:103100000AFE01900198C01B012803DB01983900D9
:10311000451A02E00198C01B4542ADB2002D05D111
:1031200068460680E4B2684644800BE068468089C1
:10313000ADB2854204D268460680E4B26846448057
:10314000641C97E75C480078E02101400C00684669
:10315000008880B2000AC006C00E2043564908709D
:10316000684600885549087055480078E0210140BC
:103170000C0068464088C006C00E204350490870C5
:103180003C4800780C2101433A48017066E06946EA
:1031900010200856042148434A490858C178F320B2
:1031A00008406A461021515604225143454A51585D
:1031B000C87000206A461021515604225143414AEA
:1031C0005158887040480068FA21890048430290AD
:1031D000029810217943FEF79EFD694608806846F3
:1031E000008880218901884202DB384869460880CE
:1031F000694610200856042148433249085800788F
:10320000E02101400C006846008880B2000AC00638
:10321000C00E20436A461021515604225143294AC8
:1032200051580870684600886A4610215156042299
:103230005143244A515848706946102008560421C9
:10324000484320490858C1780C2008436A46102199
:103250005156042251431B4A5158C87005B0F0BD65
:10326000FFFF00003480044004800440FFFFFFF3B0
:103270000000010403A0064002A00640E0FEFF1F7C
:1032800040420F0000B540B2002806D1104A127823
:103290001206FBD50F4A11700DE040B204224243E2
:1032A000084B9A5812791206F7D540B204224243CD
:1032B000044B9A58D17100BD00A0064001A0064001
:1032C0000AA0064044E6FF1FECFEFF1FFF1F0000A0
:1032D00004A0064007A00640F1B5A4B015001F00E9
:1032E000069104AC0020E0620AE00698249A904718
:1032F0000690002800D103E3E06A401CE0626D1CE8
:103300002978002901D1E06AFCE22529EDD10020CD
:103310006061A061E06120626062A06202E0010081
:10332000012008436D1C29782029F8D023290ED0CC
:103330002B2904D02D2907D030290BD00DE0010016
:103340000220084380B2EDE701000420F9E7010004
:103350000820F6E701001020F3E72A290ED139688A
:103360000A1D3A6009686163002905D54A42626313
:1033700001000420084380B26D1C12E0002161634B
:103380000AE0626B734B9A4205D093009A18520080
:103390005118303961636D1C29780A00303A0A2AC5
:1033A000EFD329782E2903D00021C94321631DE0E2
:1033B0006D1C29782A2906D139680A1D3A600968E6
:1033C00021636D1C12E0002121630AE0226B614B36
:1033D0009A4205D093009A1852005118303921634F
:1033E0006D1C29780A00303A0A2AEFD32087297801
:1033F00057487844FF305B3000F0CFFE002801D002
:1034000028786D1C3A216054605C682804D12978C2
:10341000682901D1622005E06C2806D128786C2843
:1034200003D171203A2160546D1C15A820612A78BF
:10343000100025382AD01C3800D1CEE0001F022809
:1034400000D8CAE0133800D1F2E0093800D1C4E056
:10345000801E00D189E1401E00D132E1401E0228C9
:1034600000D8BAE0001F00D12BE1401F00D18AE054
:10347000401E00D1DCE0401E23D0C01E0BD0801EB9
:1034800000D1D5E0C01E00D1D2E078E16069411CD6
:103490006161252170E13868011D39600068E060D4
:1034A000226B002A02D500F082FE08E0002100F025
:1034B00086FE002802D0E168401A00E0206BA0617F
:1034C0006AE13868011D396002680020C0430021AC
:1034D000104004AA03C215A8E0603C2204A803C857
:1034E00002AB03C302A803C8002904D1002802D1FB
:1034F000206B00281CD0521E02A803C80007000F32
:103500003030C0B23A2800DB273015A98B1818706C
:1035100002A803C800090E073043090902AE03C61A
:1035200002A803C801D1002802D0E0689842E2D383
:103530003C20801AA06115A98918E160216B88429E
:103540000CDA081A2062208F03490140218723E109
:10355000481B0000FFFFFF7FEFFF0000002900D4A1
:103560001AE13821615C14220A40102A00D013E1CC
:10357000616B6269891A226A891A0A1A012A00DAB9
:103580000AE1226208E13A20205C622817D068280C
:1035900006D06A280BD06C2818D0712807D015E007
:1035A0003868011D3960E16A00680180F4E03A681A
:1035B000101D3860E06AC117126803C2ECE0386879
:1035C000011D3960E16A00680170E5E03868011D9D
:1035D0003960E16A00680160DEE03868C01D0721DB
:1035E0008843386001000831396003C804AB03C365
:1035F000002904D56069411C61612D210DE0208FF7
:10360000810704D56069411C61612B2105E0C00779
:1036100005D56069411C6161202115AB19546069B1
:1036200015A90818E060110004A800F007FAB3E03B
:103630003A20235C6C2B01D138680FE0712B01D14B
:10364000386802E06A2B386808D1C01D072188431A
:10365000386001000831396003C803E0011D39609A
:103660000068002104AE03C6682B03D104A803C878
:1036700080B20BE0622B03D104A803C8C0B205E0FE
:10368000742B01D07A2B04D104A803C8002104AB09
:1036900003C33820205C00075ED504A803C80029B6
:1036A00001D1002858D020201043782854D16069D7
:1036B000302115AB1954401C411C616115A90A54F5
:1036C0004AE03A20205C62280CD0682810D06A2892
:1036D0001AD06C2822D0712816D074281ED07A28CF
:1036E0000CD01BE03868011D3960006840B219E059
:1036F0003868011D3960006800B213E03868011DA8
:103700003960006800210EE03868C01D0721884339
:10371000386001000831396003C804E03868011DD1
:1037200039600068C11704AB03C3002904DA60697B
:10373000411C61612D210DE0208F810704D5606956
:10374000411C61612B2105E0C00705D56069411C62
:103750006161202115AB1954606915A90818E06052
:10376000110004A800F0D0F816E06069411C616106
:1037700039680A1D3A60096815AA11540CE060699D
:10378000411C6161252115AB1954002A04D06069E0
:10379000411C616115A90A546D1C606B6169401A76
:1037A000216A401AA169401A616A401AE169401A07
:1037B000A16A401A14903820205C400711D42020C0
:1037C00069460871002609E0012301AA04A924988A
:1037D00000F0C9FC002800D092E0761C14988642C4
:1037E000F2DB666915A800900FE000980178069852
:1037F000249A90470690002800D181E0E06A401C9E
:10380000E0620098401C0090761E002EEDD1302022
:1038100069460871206A009008E0012301AA04A902
:10382000249800F0A0FC00286AD1761C00988642FB
:10383000F3DBA669E06800900EE000980178069836
:10384000249A9047069000285AD0E06A401CE06213
:103850000098401C0090761E002EEED13020694664
:103860000871606A009008E0012301AA04A9249865
:1038700000F079FC002843D1761C00988642F3DBE7
:10388000E669A069E168081800900EE000980178E8
:103890000698249A90470690002831D0E06A401C90
:1038A000E0620098401C0090761E002EEED1302081
:1038B00069460871A06A009008E0012301AA04A9E2
:1038C000249800F050FC00281AD1761C00988642FB
:1038D000F3DB3820205C400700D411E52020694646
:1038E0000871002600E0761C1498864200DB07E58C
:1038F000012301AA04A9249800F035FC0028F2D085
:103900000020C04325B0F0BDF3B583B0006900903E
:103910006846027C6F2A01D1082406E02021114369
:10392000782901D00A2400E010243C25039803C81C
:1039300006000F00642A01D0692A07D1002905DAA0
:1039400000200021801BB94106000F00002F12D17A
:10395000002E10D10398006B00280CD1082C3CD10C
:10396000039838300078000737D53B253020009980
:103970003B31087031E06D1E0195300039002200A6
:10398000E31700F028FC3032D2B23A2A03DB684653
:10399000007C5138121800994A5530003900220035
:1039A000E31700F018FC06000F0001D1002E05D02F
:1039B0000398C068009949198842DCD3082C0CD1BF
:1039C000039838300078000707D50098405D30280C
:1039D00003D06D1E3020009948553C20401B0399B0
:1039E000886100994919039AD1600399096B88424B
:1039F00009DA081A039908620398008F0E490140FA
:103A00000398018715E0002913D503993831097807
:103A100014220A40102A0CD10399496B039A526967
:103A2000891A039A126A891A0D1A012D01DB03986B
:103A3000056205B0F0BD0000EFFF0000F3B591B0E6
:103A400007AD03C802AA03C212A8007820210143CF
:103A5000009161290BD01198006B002801D5062038
:103A600003E004D1672902D101201199086311985C
:103A700041684800400DAA4A904225D1080310D160
:103A80001198006800280CD103201199886112A8B0
:103A9000007861381A2842D3234878448A3000904D
:103AA0000BE003201199886112A8007861381A2868
:103AB00031D31E4878447430009003220099119845
:103AC000C06800F0BDFBF8E1012817DA119800F09A
:103AD000E5FB012812DB002600270098612832D17F
:103AE0001198C06830210170401C411C119AD160AE
:103AF00012A9097861291FD178211EE0119949681E
:103B0000884A0A4088491143119A51608749471AE7
:103B10000026F643E1E7064878441430CCE7054830
:103B200078441030BBE700BF841500007815000012
:103B3000701500007415000058210170119840693B
:103B4000801C11994861002E03D1002468468680AC
:103B5000A9E10098612800D09FE01198046B002C27
:103B600001D5212400E0641C24B2601C009011984F
:103B700003C804AA03C202A803C80022002300F05D
:103B8000AFFB04A803C802D280221206514002AA49
:103B900003C2381F6946888000260E7707AF7F1C56
:103BA00000E0FF1D0098012830DB02A803C80022B6
:103BB000002300F0AEFB29D21C2102A800F0C2FBBA
:103BC00002A803C800F04CFC05000098C01F00903C
:103BD00001280ADB280000F06DFC02000B0002A89F
:103BE00003C8FEF7F1FC02AA03C2FF1D072004E090
:103BF0007F1E2907090F39702D11012D01DB401E91
:103C0000F6D5401ECDD47F1E3E70FAE707A8401CB3
:103C1000391A07AD6D1CA14200DA0C0024B2200055
:103C200032D4884205DA07A909184978082900DB47
:103C30000F2607A9091801E0641E491E401E0A78D4
:103C4000B242F9D00F2E04D107A909184A78521CA4
:103C50004A70002806D507AD641C019800B2001D0B
:103C60006946888024B2601E0ED429180A78303242
:103C7000D2B23A2A03DB12AB1B783A3BD2180A7055
:103C8000401E491E0028F1D51198006B002800D471
:103C900009E1601E1199086305E102A803C800222A
:103CA000002300F01DFB06D202A803C880221206E2
:103CB000514002AA03C23FB2814878438149FEF7CE
:103CC00027F8694688800720019909B2421A002026
:103CD0007D49012A20DB049202AA30CA00260F0087
:103CE0000498C00707D532003B0020002900FEF7EA
:103CF00046FB04000D000498401004903000390089
:103D000032003B00FEF73BFB06000F000498002842
:103D1000E6D102A830C028E0544200266B4F18E0DC
:103D2000FF070000FFFF0F800000E03FFE030000E0
:103D3000E00707D504A803C832003B00FEF71FFBCD
:103D400006000F00641004A803C804AA0CCAFEF7FA
:103D500016FB04AA03C2002CEAD102A803C8320051
:103D60003B0000F0C1FB02AA03C20098662803D101
:103D7000019800B20A3000E006201199096B08187A
:103D80000490142801DB1320049030206946087742
:103D900007AC641C0498012841DB02A803C800F0AA
:103DA00071FB060008340594042430000A21FDF755
:103DB000B2FF0F0030000A21FDF7ADFF06000598A5
:103DC000401E06903037077030000A21FDF7A3FF30
:103DD0000F0030000A21FDF79EFF06000698401EE6
:103DE000059030370770641EDFD1059C08340498B5
:103DF000083804900128CDDB02A803C800F042FB7C
:103E000000F062FB02000B0002A803C8FEF7DCFB17
:103E100000222F4BFEF7B3FA02AA03C2BDE707A8A0
:103E2000401C201A07AD6D1C6A4605E0401E019932
:103E300009B2491E91806D1C29783029F6D000996D
:103E4000662903D1019909B2491C04E0652901D111
:103E5000012100E00021119A126B541824B2A042F3
:103E600000DA040024B221001DD4814204DA685C27
:103E7000352801DB392000E030206A1800E0641E9C
:103E8000521E491E13788342F9D0392802D1685C4A
:103E9000401C6854002906D56D1E641C019800B2B0
:103EA000401C69468880019800B2009023B22A0025
:103EB00012A80178119800F00DF813B0F0BD0000C1
:103EC00097750000A0860100000024400000F03F2C
:103ED00084D79741F6B589B005001C0000F07FFB40
:103EE0000190406A0078694608722F6B012C03DA52
:103EF000012400BFA8A00A9009A801782020084347
:103F0000109E662801D1761C17E0672800D086E055
:103F100036B20320C043864200DA84E0BE4200DBB2
:103F200081E0761C3820285C000702D4BC4200DA0D
:103F3000270036B2BF1B00D50027E8680090A869AB
:103F400000990918019136B2012E26DA401C302161
:103F5000019A1170012F03DA3821695C090704D531
:103F60006946097A009A1154401CA8617042874240
:103F700000DA7E4236B270426862BF19A74200DAA8
:103F80003C0024B2EC6122000A99A869009B181831
:103F900000F056F9381BA862CFE0B44218DA2200CC
:103FA0000A99019800F04CF9A8690019A861311B21
:103FB0006962012F03DA3821695C090706D5694671
:103FC000097AEA681154E869401CE861AF62B4E01C
:103FD00032000A99019800F033F9A8698019A41BEE
:103FE000012F03DA3821695C090704D56946097A8B
:103FF000EA681154401CA86124B2A74200DA3C00D0
:1040000024B222000A988119A869EB68181800F0F8
:1040100017F9A8690019A861381B68628DE0612949
:1040200011D1702012E0BC4204DA3820285C00076D
:1040300000D427007F1E00D50027672901D1652005
:1040400004E0452002E0412902D1502009A908706E
:10405000A969481CEA6800920A9A1278009B5A548F
:104060000A99491C012F05DA3822AA5C120701D4EB
:10407000A86117E06A46127A009B1A54401CA86196
:10408000012F0FDB641E24B2A74200DA3C0024B2E9
:104090002200009B181800F0D3F8A8690019A86145
:1040A000381B6862A869E968081809A909780170CD
:1040B000401C36B2310004D42B210170401C0A9000
:1040C00004E02D220270401C0A904E42002405AFED
:1040D00008E00A2203A800F09DFA04983870039EB5
:1040E000641C7F1C31B20129F3DA022C0BDA09A817
:1040F000007820210143652905D130200A990870F4
:104100000A98401C0A90002C0FD130200A990870A0
:104110000A98401C0A900AE0641E05A8005D303031
:104120000A9908700A98401C0A90012CF4DA0A983F
:10413000A969EA685118401AE8613820285C1421FE
:10414000014010290DD16869A9694018696A4018B1
:10415000E9694018A96A4018696B884201DA081AAF
:1041600028620BB0F0BD79B50C0016001D000020D0
:1041700005E0E06A401CE0620020761C6D1E002D08
:1041800008D03178A068009A9047A0600028F0D14C
:104190000020C04376BD00003000C9B200E0401CE2
:1041A00002788A4202D0002AF9D10020704701002B
:1041B00000E0491C0A78002AFBD1081A7047C9B2EE
:1041C00001E0401C521E002A03D003788B42F8D134
:1041D000704700207047124224D0994228D970B508
:1041E00000251B4202D00C00002109E0002401261A
:1041F00049186441944200D3A41A7641F8D331009F
:10420000012601E0764109D2001864416D41A41AEB
:104210009D41F7D2A4185D41B619F5D330002200B4
:104220002B0070BD1B42D8D108B500F003FA08BDC1
:1042300001D19042D3D202000B0000210020704730
:10424000124207D08B0706D00B78491C0370401C24
:10425000521EF7D87047830706D00B78491C0370AD
:10426000401C521EF9D1704770B4103A03D378C97C
:10427000103A78C0FBD2530701D318C918C001D532
:1042800008C908C0D20704D30B880380891C801C8E
:10429000002A01D50B78037070BC704738B4010058
:1042A0004B68802212061A4001201B031B0B4B6037
:1042B0000BD10B68002B08D10DE00B686400DD0FFB
:1042C00025434D605B000B60401E4C68E302F4D553
:1042D00023031B0B4B604B681A434A6032BC704788
:1042E00030B4012464054D00EC420BD85D00EC4273
:1042F00008D80C001C4364000443144304D29942C0
:1043000000D1904230BC7047FCD08B42FAD182423F
:10431000F8E730B4012464054D00EC420BD85D0091
:10432000EC4208D80C001C4364000443144304D23C
:104330008B4200D1824230BC7047FCD09942FAD106
:104340009042F8E770B504000D0060684000400D31
:104350003F4EB04207D16068000302D120680028B8
:1043600016D0022070BD002804D12000FFF796FF70
:1043700001286BDA012D0DDB311A8D420AD36068FA
:10438000002802D50020334901E00020310503C494
:10439000012070BD4142A942616806DA2E4A0A40F6
:1043A000281800051043606047E080221206114083
:1043B00062681203120B80235B0313436360401E89
:1043C0002D1800202A003532352A02D36160206082
:1043D00070BD00221E23DB439D4204DA2035226893
:1043E000636823606060684211D0521E9241D243DC
:1043F000D20F20231B1A25689D402A432568C540FB
:1044000066689E402E4326606368C34063606068B0
:10441000084360601148824206D280200006824232
:104420000ED12078C0070BD52068401C2060206882
:10443000002805D16068401C60600020C04370BD4A
:1044400060688842F9D120680028F6D1002070BD4C
:10445000FF0700000000F0FFFFFF0F800100008059
:10446000F4464A1805D200F00FF801D5801740082D
:10447000604700F009F80121C907884200D9080007
:10448000404260474A1812D2400DC9020843012138
:10449000C9070843520D40210901521A521C06D483
:1044A00052421F3201D4D0407047C01770470020DD
:1044B00070470000010009D5F446404200F006F8BC
:1044C0000122D20711436047010000BF42221201BE
:1044D000D21E004207D002D4521E0018FCD5C10AD9
:1044E0004005120589187047F0B40E005E400125A2
:1044F000ED072E40B446AE0ADF184C18F4423BD20A
:10450000F74241D2640D43D07F0D38D0E41BC9027D
:10451000DB0229432B43CF0ADB0A0600B61A9F4170
:1045200004D2641EB6197F41B6185F416812800D2F
:1045300024180018844222DAE80C0021B6197F41C1
:10454000B61A9F4102D2B6185F413F1C4041494113
:10455000F4D3241C21DD2405B6197F41B61A9F41EE
:1045600005D33743C60737430026012F7041614109
:1045700066463143F0BC7047FCD1F74205D20020BB
:10458000C14349054908F3E704D00020C143F1E7DE
:104590007F0DFAD000206146ECE72442FAD1401C9E
:1045A00061410F03F6D30020E2E7000080B5124816
:1045B00000F041F811A1016041608160C1600161BA
:1045C000416181610EA242628162C1620163416305
:1045D0000CA282630DA2C2630164416401BD10B5E7
:1045E000054800F028F804002068002801D1FFF7F2
:1045F000DDFF200010BD000058FFFF1F000000007D
:104600002E00000066616C736500000074727565B1
:10461000000000007CB504000E00150030002900E9
:10462000FDF776FB00904543701B0190684603C878
:1046300003C476BD7047704730B5040064B20420EF
:10464000604386490D5A64B2012C00DA05E164B278
:104650000D2C00DB01E1ADB2652D03DA0020B44979
:10466000087074E0ADB2C92D03DA0120B0490870BA
:104670006DE0ADB2FF202E30854203DA0220AC4956
:10468000087064E0ADB2FF209230854203DA032067
:10469000A74908705BE0ADB2FF20F630854203DA2F
:1046A0000420A349087052E0ADB2A248854203DA63
:1046B00005209F4908704AE0ADB26948854203DA97
:1046C00006209B49087042E0ADB26648854203DA95
:1046D0000720974908703AE0ADB29748854203DA5F
:1046E00008209349087032E0ADB29448854203DA5D
:1046F00009208F4908702AE0ADB29148854203DA5B
:104700000A208B49087022E0ADB28E48854203DA58
:104710000B20874908701AE0ADB28B48854203DA56
:104720000C208349087012E0ADB28848854203DA54
:104730000D207F4908700AE0ADB28548854203DA52
:104740000E207B49087002E00F207949087064B29E
:10475000042060434149085A75490978491CFDF70E
:10476000D7FA0500ADB2292D03DA00207049487050
:1047700073E0ADB2512D03DA01206D4948706CE051
:10478000ADB2792D03DA02206949487065E0ADB217
:10479000A12D03DA0320664948705EE0ADB2C92D51
:1047A00003DA04206249487057E0ADB2F12D03DA14
:1047B00005205F49487050E0ADB2FF201A308542B5
:1047C00003DA06205A49487047E0ADB2FF20423074
:1047D000854203DA0720564948703EE0ADB2FF201B
:1047E0006A30854203DA08205149487035E0ADB29D
:1047F000FF209230854203DA09204D4948702CE0B1
:10480000ADB2FF20BA30854203DA0A204849487029
:1048100023E0ADB2FF20E230854203DA0B204449A9
:1048200048701AE0ADB24B48854203DA0C2040498B
:10483000487012E0ADB24848854203DA0D203C4989
:1048400048700AE0ADB23B48854203DA0E20384991
:10485000487002E00F203649487030BDECE5FF1F7C
:10486000BD0200002103000010B50400200040B28A
:10487000FFF7E2FE3948006880218900014337488C
:1048800001602B4800780007294949780904E02293
:10489000D2020A4002433248026081203149087046
:1048A000242031490870BA20304908703048007817
:1048B000C006FBD42E480078C0B20C210140082964
:1048C000F8D164B2042060432A4908188078C006F1
:1048D000C00E2949087064B20420604325490818B5
:1048E000C078C006C00E4021014324480170204812
:1048F00000788006FBD51E4800784006FBD50220D4
:104900001A4908701A480078C0B20C2101400C29DD
:10491000F8D11B4800688021490201431848016012
:1049200064B2042044431348005BC0B210BD0000D1
:1049300020E6FF1F5902000085030000E903000084
:104940004D040000B10400001505000079050000C9
:10495000DD0500000902000031020000388004403B
:10496000448004400050064001400640004006409C
:1049700006400640ECE5FF1F0440064005400640A7
:1049800004800440EFEEEE3E0A460100E17A143F57
:104990005245530000000000005245530000000043
:1049A00000004E4D4900000000000048617264465E
:1049B00061756C745245530000000000005245536D
:1049C00000000000000052455300000000000052AB
:1049D0004553000000000000524553000000000055
:1049E00000524553000000000000524553000000F3
:1049F000000000535643616C6C00000052455300A8
:104A00000000000000524553000000000000506507
:104A10006E6453560000005379735469636B000051
:104A2000444D41300000000000444D413100000081
:104A30000000444D41320000000000444D4133006D
:104A400000000000444D4134000000000052455376
:104A50000000000000004654464100000000004CE9
:104A600056445F4C565700004C4C57000000000065
:104A70000049324330000000000049324331000059
:104A800000000053504930000000000053504931ED
:104A90000000000000554152543000000000554114
:104AA00052543100000000554152543200000000C1
:104AB000414443300000000000434D5030000000EE
:104AC000000054504D30000000000054504D3100A3
:104AD0000000000054504D320000000000525443CA
:104AE0000000000000005254435F53656300005013
:104AF000495400000000000049325330000000001B
:104B00000055534230000000000044414330000093
:104B10000000005453493000000000004D4347009E
:104B200000000000004C50544D520000000052455F
:104B3000530000000000005054410000000000003D
:104B40005054435F505444000000000000F00FF840
:104B500040F00FF880F00FF8C0F00FF800F10FF8F8
:104B600000000A1D3000030040000200420003095B
:104B70004400030A480002035000020660000100DE
:104B8000800002188800010A9400010DC800011A73
:104B9000DC00011F000100000090044000A0044060
:104BA00000B0044000C0044000D004400080034036
:104BB0000090034000A0034000A0064000B0064063
:104BC00000C00640010000000D81110009030CD057
:104BD0001240173F185019031A783200A00A63E0F8
:104BE000ACFF650C6600670029142C1E2A007E0CA1
:104BF0007F16802A814E8261836F847B8586868EB4
:104C0000879788A489AF8AC58BD78CE88D204A0006
:104C1000491347084B144C17460522992303A60451
:104C20009B0043A0AB069E119F02000031000000D4
:104C300002040101F4FEFF1F44FFFF1FF4FEFF1FEB
:104C4000F4FEFF1FF4FEFF1FF9E6FF1FE0E6FF1F63
:104C50000000000000000000000000000000000054
:104C60000000000000000000000000000000000044
:104C700080B500F0A5F800F03AF800F005F8FDF76F
:104C8000FEFDFBF7D7FBFEE780B53D480078000747
:104C900005D53B48007808210143394801700B20B5
:104CA000FFF7E2FD37490860364800683649096871
:104CB000090F491CFDF72FF8344908603348006894
:104CC000FA218900484332490860314800682E497A
:104CD0000968090C4907490F491CFDF71CF82D49C3
:104CE0000860E12149020020FEF75AF901BDF0B544
:104CF00083B02948294988420FD00020040082202F
:104D00004000844209D20420604324490858042109
:104D10006143214A5050641CF1E71F48FCF7EEFD47
:104D20001F4807001F4805001F4801900198401BBD
:104D300004002000441E002804D0287838706D1C20
:104D40007F1CF6E719480600194800900098801B60
:104D500004002000441E002803D000203070761C80
:104D6000F7E714481449154A531A1C0023005C1E27
:104D7000002B04D00B780370491C401CF6E7F7BDEC
:104D800002D00740E0FEFF1F44800440E8FEFF1F02
:104D9000E4FEFF1FECFEFF1F00E0FF1F000000000D
:104DA00010E4FF1F84490000704C0000FCE6FF1F68
:104DB00058FFFF1F58FFFF1F1004000010040000E1
:104DC0000648006804490860044800680C218843CC
:104DD0000249086070470000DCFEFF1F00810440AC
:104DE0000A2A2A2A2A64656661756C745F6973727F
:104DF00020656E7465726564206F6E2076656374DD
:104E00006F722025642A2A2A2A2A0D0A0A2573206D
:104E1000496E74657272757074000000433A5C5597
:104E2000736572735C446E64645C4465736B746F29
:104E3000705C372E32325F66696E616C5C43686904
:104E4000705C5372635C4D4B4C5F6770696F2E638F
:104E500000000000433A5C55736572735C446E64F5
:104E6000645C4465736B746F705C372E32325F66BE
:104E7000696E616C5C436869705C5372635C4D4B36
:104E80004C5F5379735469636B2E6300433A5C55EE
:104E9000736572735C446E64645C4465736B746FB9
:104EA000705C372E32325F66696E616C5C43686994
:104EB000705C5372635C6D6973632E630000000065
:104EC000433A5C55736572735C446E64645C44651C
:104ED000736B746F705C372E32325F66696E616C13
:104EE0005C436869705C5372635C4D4B4C5F646DEE
:104EF000612E6300433A5C55736572735C446E6463
:104F0000645C4465736B746F705C372E32325F661D
:104F1000696E616C5C436869705C5372635C4D4B95
:104F20004C5F5049542E6300433A5C55736572736D
:104F30005C446E64645C4465736B746F705C372EA4
:104F400032325F66696E616C5C436869705C537293
:104F5000635C4D4B4C5F54504D2E630010B50749B8
:104F600079441831064C7C44163404E0081D0A6864
:104F7000891888470100A142F8D110BD74000000D3
:104F800080000000417373657274696F6E20666102
:104F9000696C656420696E202573206174206C69DA
:104FA0006E652025640A00000A4765742049442084
:104FB00073756363657373A3AC53454E534F5220AF
:104FC0004944206973203078257800000A4F56370D
:104FD00037323520526567697374657220436F6E8E
:104FE0006669672053756363657373210000000071
:104FF00033D3FFFF5C180000FCE6FF1F0000000039
:105000000A436F6E666967205265676973746572DB
:10501000204E756D62657220697320256420000042
:1050200000F00BF8002801D0FFF798FF0020C046E1
:10503000C046FBF7FFF900F002F80120704780B589
:1050400000F002F801BD00000746384600F002F803
:10505000FBE7000080B5C046C046024A1100182098
:10506000ABBEFBE7260002000ABEAFB8E63A5343E8
:105070004342D0B4CAFDBEDDB4EDCEF30000000063
:105080000ABEAFB8E63AD0B4BCC4B4E6C6F73078CE
:105090002578CAA7B0DC0000686A6C747A4C0000FE
:1050A0006E616E004E414E00696E6600494E4600CC
:1050B00038B505000C00200000F006F8A04200D032
:1050C0000025280032BD000080B50249FDF7CDFB68
:1050D00002BD00BFBCE6FF1F0ABEAFB8E63AB6C1CC
:1050E000C8A14944CAA7B0DC00000000C046C046C1
:1050F000C046C046FFF794FF00000000000000001B
:10510000000000000000000000000000000000009F
:1051100000000000FFFFFFFFFFFFFFFF0000000097
:10512000000000000000000000000000000000007F
:10513000000000000000000000000000000000006F
:10514000FFFFFFFFFFFF0000000000000000000065
:10515000000000000000000000000000000000004F
:10516000000000000000000000000000000000003F
:10517000000000000000000000000000000000002F
:04000005000050EDBA
:00000001FF
