:10000000F85F002011040000392B0000392B00009C
:10001000392B0000392B0000392B0000392B000050
:10002000392B0000392B0000392B0000392B000040
:10003000392B0000392B0000392B0000392B000030
:10004000392B0000392B0000392B0000392B000020
:10040000FFFFFFFFFFFFFFFFFFFFFFFFFEFFFFFFFD
:1004100062B602F07FFAFEE710B500220021482004
:1004200000F00CFE00220021492000F007FE00220F
:1004300000214A2000F002FE002200214B2000F0A3
:10044000FDFD00F035F86E2364220021012000F04C
:1004500076FE8024E4033548046035480168322084
:100460004143002000F0F2FE3249262000F013FF45
:1004700031490E2000F018FF96492E2000F00BFFA6
:1004800095482102016004609448417C0029FDD018
:10049000243000F047FF92492E2000F0FCFE9149E5
:1004A000102000F0F8FE00F00FFA00F04BF810BD3D
:1004B00080B5482000F0E0FD002807D187481921C9
:1004C00001701A22427018228270C170492000F017
:1004D000D3FD002804D11E21804801701F2214E0A2
:1004E0004A2000F0C9FD002806D121217B48017077
:1004F0002222427015220AE04B2000F0BDFD0028A8
:1005000007D124217548017025224270162282707D
:10051000C17001BD744801680022D24302604806E0
:1005200000D4704780B500F04EFF01BD80E100E0CF
:1005300008FDFF1FC50F00001301090080B500F082
:1005400072FF01BDF0B583B00125644C01E000F0FD
:10055000F7F900F078FF230024336448694600BFB0
:1005600063A216880E80962189006F461A785B1C5C
:10057000D609BE5D067096092E40BE5D46705609CE
:100580002E40BE5D867016092E40BE5DC670D60830
:100590002E40BE5D067196082E40BE5D467156081F
:1005A0002E40BE5D86712A406E46B25CC271083034
:1005B000491EDBD16079002802D100F09AF808E0EA
:1005C000012802D100F048FA03E0022801D100F02E
:1005D000EDFBE079BA490291BA4901911521029BDC
:1005E0001B784D2B23DB019B1B78FF2B00D1521C6A
:1005F0000326019B5B1C1F78FF2F00D1521C761C29
:100600005F78FF2F00D1521C761C9F78FF2F00D1FE
:10061000521C761CDF78FF2F00D1521C761C1B1D4C
:10062000F6B24F2EE7DBD2B24D2A00DB401C00228F
:10063000029E3270019B503B0193029B5B1E029312
:10064000491ECCD1E07160792179E379002B02D089
:100650000121E2710CE0002804D1012908D1002118
:10066000012005E0012803D1012901D1002100204A
:1006700021716071A079002800D168E7012811D1AB
:100680008720A08287220021012000F0B5FD0022F2
:100690000021002000F0B0FD62780221002000F06F
:1006A000ABFD56E702280FD15520A082552200212C
:1006B000012000F0A1FD62780021002000F09CFDE7
:1006C000002202210020EAE7032800D041E700F0E1
:1006D000FFFA3EE7ED0F000000E100E010E4FF1F2D
:1006E000150500003D050000A090044074E7FF1FC1
:1006F000FF00F0B585B028208A49088032218A4859
:1007000002908A4801906E480390894A894B8A4D2D
:100710008A4800900820009C083466782778BF1B20
:10072000FF2F02D1029C20700AE0401CC0B2A778C3
:10073000F61BFF2EF6D0401CC0B2A41C4828ECDBF0
:100740000220009CA41C2678002E04D1039E36783B
:10075000761C039F3E7026786778F61BFE27FF43C2
:10076000BE4201D1019F3870401C641C4F28EADB57
:100770000298007800281BD0019C2478002C17D008
:10078000001B0930092813D2AD4C207B401C20737C
:1007900002980078019C24780019401CC40F20188E
:1007A000401010800020029E3070019C207057E0A5
:1007B0005088C0B2009C261804E0DE261E80401E31
:1007C000C0B22600002809D0741E36782778F61BA0
:1007D000FF2EF2D1401E1880994CA0725088C0B2F2
:1007E000009C241804E0DE262E80401CC0B2641C4D
:1007F0004F2808DA26786778F61BFF2EF3D1401CC5
:1008000028808F4CE0720020285E00269E5FDE2E3E
:1008100011D0DE281ED1DE2E1AD0DE2818D1884C49
:10082000A07A301A4F302880E0720020285E002421
:100830001C5F00190FE0DE28EDD0814CE67A801BAA
:100840001880A0720020285E00241C5F001902E0BE
:10085000282004E08019401CC40F2018401010808C
:1008600000200024145F8E0076183601754FBF19E2
:100870003855491E009C503C0094AD1E9B1E921E94
:10088000039C641E0394019C641E0194029C641EDC
:1008900002941E2900DB3DE7694C217B052903DB1F
:1008A000022161710321A17120732278002100F0DF
:1008B000A3FC22780221002000F09EFC05B0F0BDD0
:1008C0006AFCFF1F66F2FF1F10B55F4C0023220079
:1008D0000021002000F033FC002322000121002031
:1008E00000F02DFC002322000221002000F027FC54
:1008F000002322000321002000F021FC504C22782C
:100900000021002000F078FC00220121002000F0EE
:1009100073FC22780221002000F06EFC00220321EB
:10092000CFE100009AFAFF1FF2FBFF1F2EFCFF1F12
:1009300098FAFF1F1CFBFF1FA0FBFF1F14F7FF1FF0
:10094000F8B53F488769414C414D07262820298842
:10095000401A208000B200F0A7FD390000F0BDFD74
:1009600007002820A91E0988401AA11E088000B28D
:1009700000F09AFD390000F0B0FD07002820291F83
:100980000988401A211F088000B200F08DFD39004F
:1009900000F0A3FD0700AD1FA41F761ED6D12D4980
:1009A00000F026FE2649886100F08CFE04000D0050
:1009B000B3A003C822002B0000F09DFE22002B00F4
:1009C00000F099FE22002B0000F095FE06000F00BB
:1009D000ADA003C822002B0000F08DFE02000B002A
:1009E0003000390000F0ACFF22002B0000F045FF82
:1009F00001F01DF8040012488461A5480021455EFD
:100A00002821405E401B00F04FFD0D49096A01F0AE
:100A10003FF801F097F8282D00D100200849C8823E
:100A2000C869210001F034F89A4900F056FD04002D
:100A300016200349085E00F037FD2100A4E1000004
:100A400010E4FF1F74E7FF1F204E0000D8FCFF1FBB
:100A500098FAFF1F0000A841F0B589B028208E4900
:100A6000088032218D4805908D4804908D4806906D
:100A70008D4800908D4802908D4801908D480390DC
:100A80000820039A083253781478E41AFF2C02D114
:100A9000059A10700AE0401CC0B294781B1BFF2B13
:100AA000F6D0401CC0B2921C4828ECDB0220039A0E
:100AB000921C1378002B04D1069B1B785B1C069CB0
:100AC0002370137854781B1BFE24E443A34201D106
:100AD000049C2070401C521C4F28EADB764C627A42
:100AE000237A05980078002814D0049D2D78002DD5
:100AF00010D0461BF61D072E0CD24019401CC50F06
:100B000028184010009D28800020059E3070049D0C
:100B100028706FE000984088C0B2039D2E1805E051
:100B2000DE26029F3E80401EC0B22E00002809D063
:100B3000751E36782F78F61BFF2EF1D1401E029DD0
:100B40002880A07200984088C0B2039D2D1805E04F
:100B5000DE26019F3E80401CC0B26D1C4F2808DA83
:100B60002E786F78F61BFF2EF2D1401C019D288055
:100B7000E072019800886D46A883079D2DB2029807
:100B80000026865FDE2E15D0DE2D2AD1DE2E24D063
:100B9000DE2D22D1521C0023A07A301A4F30019D45
:100BA0002880E07201980025405F029D0026AD5F1D
:100BB000401919E0DE2DE9D000225B1C079800B235
:100BC000E57A401B029D2880A07201980025405FB5
:100BD000029D0026AD5F401906E000220023282078
:100BE00006E000220023A819401CC50F2818401059
:100BF000009D2880237262720020009A0023D25E3A
:100C00008B005B181B012D4DEB189854491E039A5D
:100C1000503A0392019A921E0192029A921E0292F7
:100C2000009A921E0092069A521E0692049A521E32
:100C30000492059A521E05921E2900DB20E7217AB4
:100C4000082905DB2149097800290CD1012107E099
:100C5000617A082906DB1D490978002903D10221A0
:100C6000A17100E0A071002121726072A27800F0F1
:100C7000C3FAA2780221002000F0BEFA09B0F0BD4C
:100C8000FA7E6ABC7493583FD200DE02098A8F3F15
:100C900070FAFF1F0000DC429AFAFF1FF2FBFF1FF1
:100CA0002EFCFF1F6AFCFF1F98FAFF1F1CFBFF1F93
:100CB000A0FBFF1F14F7FF1F10E4FF1F74E7FF1FC7
:100CC0000221002000F098FA10BD00004CECFF1F3C
:100CD000F8B5C4488769344C324D07262820298846
:100CE000401A208000B200F0DFFB390000F0F5FB75
:100CF00007002820A91E0988401AA11E088000B2FA
:100D000000F0D2FB390000F0E8FB07002820291F83
:100D10000988401A211F088000B200F0C5FB390085
:100D200000F0DBFB0700AD1FA41F761ED6D11520F7
:100D3000AC49497B401A00F0B7FB0100380000F0D5
:100D400057FC00F0FFFE00B200F0AEFBA549886141
:100D50000021A44A5173A44900F012FF03D9A94904
:100D600000F022FF0AD2D2780021002000F044FADD
:100D70009C48C2780221002000F03EFA9948C169DF
:100D8000806900F085FEA04900F0A7FB00F0DAFEC4
:100D90009449888214200A5E0021012000F02CFA78
:100DA000F1BD000098FAFF1FD8FCFF1FF0B486B019
:100DB0002820964908801424142395490A0089485C
:100DC00055781678761BFF2E01D1C3730AE05B1CA1
:100DD000DBB29678AD1BFF2DF7D05B1CDBB2921C0B
:100DE0003C2BEDDB4A780B789B1AFE25ED43AB429A
:100DF00002D1641C04740AE0641CE4B28B78D21A39
:100E0000AA42F6D0641CE4B2891C3C2CEADB3221F5
:100E1000804A0392804A0492804A0092804A01925A
:100E2000804A814B0293C37B1C1F00E0641CE4B228
:100E3000037C1B1D9C420BDA029D2D192E786D78C8
:100E4000751BFF2DF2D1039D2C70039C2478C47375
:100E5000C47B241FE4B200E0ECB29C420CDA651CB7
:100E6000029E361937787678BE1BFE27FF43BE42B6
:100E7000F2D1049B1C700574837B039C2478002CA6
:100E800014D0049D2D78002D10D0661BF61D072E62
:100E90000CD26419641CE50F2C196410009D2C8081
:100EA0000024039E3470049D2C7063E0009C6488D1
:100EB000E4B2029D2E1905E0DE26019F3E80641EED
:100EC000E4B22E00002C09D0751E36782F78F61B60
:100ED000FF2EF1D1641E019D2C808472009C6488D9
:100EE000E4B2029D2D1904E0DE261680641CE4B2F3
:100EF0006D1C4F2C07DA2E786F78F61BFF2EF3D17E
:100F0000641C1480C4720024145F019E0027F65FE5
:100F1000DE2E12D0DE2C25D1DE2E1DD0DE2C1BD1F4
:100F20005B1C847A341B4F341480C4720024145F19
:100F3000019D0026AD5F641916E0DE2CECD05B1C31
:100F4000C57A641B019D2C8084720024145F019D6E
:100F50000026AD5F641907E00023447B641C4473E2
:100F6000282405E05B1CA419641CE50F2C196410EF
:100F7000009D2C8083730024009B00255B5F8D0007
:100F80006D182D01294E7519EC54491E029B503BDA
:100F90000293921E019B9B1E0193009B9B1E00933C
:100FA000049B5B1E0493039B5B1E03931E2900DBC3
:100FB00039E7817B032901DB44718471847306B0B6
:100FC000F0BC70471A48016801290AD11949012269
:100FD0008B7C002B00D14A7400238B7401680A4378
:100FE0000260704710E4FF1F0100C0408020C00174
:100FF00011490A68024004D008600E48817C491CEF
:10100000817470470000C0C00000DC429AFAFF1FE4
:10101000C8F7FF1FF2FBFF1F2EFCFF1F98FAFF1FF0
:101020001CFBFF1FA0FBFF1F14F7FF1F74E7FF1F30
:101030000C71034010E4FF1FA090044038B5430931
:101040009B00134CE3580124C506ED0EAC4000296B
:10105000596902D1A143596109E021435961002A2C
:10106000196802D1A143196001E00C431C60802182
:10107000490000F019F931BD41098900044A51586D
:101080000969C006C00EC140C807C00F7047000004
:101090008CE6FF1F80B5002803D002283CD028D35F
:1010A00001BD6448026880235B0413430360052983
:1010B0000AD801A0405C8744041018202830C021C1
:1010C0008900982000F0F0F801BDC0218900992026
:1010D000F8E7C02189009D20F4E7C02189009E2007
:1010E000F0E7C02189009F20ECE7C02189009A2009
:1010F000E8E75048026880239B04134303600029FB
:1011000002D0012904D001BDC02189000C20D9E7FB
:10111000C02189000D20D5E7464802688023DB0402
:1011200013430360002902D0012904D001BDC0216E
:1011300089000120C6E7C02189000220C2E7F7B577
:101140001D006946042009566A4600201056FFF724
:10115000A1FF39480068394948434710380C0299C3
:1011600000F04EFD80B2002600E0761C0100F14048
:101170000129FADAF7403800029900F041FD87B200
:10118000694600200856002808D0022806D00CD254
:10119000781C45432800FA21890003E0781C454368
:1011A0002800642100F02CFD040069460020085648
:1011B0008000234908586A4604215156C900411845
:1011C000CA6804239A43CA602822CA601D4A136869
:1011D0001D4D1D401560136880256D041D4315606D
:1011E0007207520F0823134303608760A4B20C6197
:1011F0000021416003B0F0BD30B503000C001000C9
:101200009A000F4DAD58AA68002AF9D0002B07D0DC
:10121000022B05D00AD2521C5043FA21890002E069
:10122000521C5043642100F0EBFC0100E000281840
:10123000016130BD3C800440FCFCFF1F40420F00B8
:10124000ECE6FF1F04800440FFFFFFFC10B40D4AD2
:101250001368802424041C43146000220A4B1A6083
:1012600000010A4A1018491E0160C16801220A43A0
:10127000C26081680122914381600321816010BCBA
:10128000704700003C800440007003400071034040
:101290000349086070478000024A115070470000FF
:1012A00008ED00E000E0FF1F30B41B4A1368540D46
:1012B0004509AC401C43146042099200174B9A58F0
:1012C0001F2301241F250540AC40A0255451034095
:1012D0009800115030BC704730B40F4A1368540D59
:1012E0004509AC401C431460420992000B4B9A58CC
:1012F0001F2301241F250540AC40A0255451034065
:10130000980010180268064B0B40E021C9001140FC
:101310001943016030BC704738800440D8E6FF1F95
:10132000FFF8FFFF7CB5544E7060544D00246946B1
:101330000C7000F0CAFC8021122000F0B1FD0028E2
:10134000F4D0322000F0C4FE0B220121684600F0E8
:10135000CCFD0028EAD0684600782128E6D109E0D3
:10136000600028184178007800F09AFD0028DDD050
:10137000641CA4B26420285C8442F1DB96208000C7
:10138000019001200090072372683D49002000F081
:10139000BBFE3C4801784906490E01703A48016895
:1013A0004900490801600120384908608007384930
:1013B000086038490720FFF777FF37490620FFF715
:1013C00073FF002076BD38B4314A8020C0052A4919
:1013D0000023CB56042B21D103230B7010602F4A1E
:1013E000936884091C43946096239B009360244B6C
:1013F0001360496851608021224B1C788025254369
:101400001D70D3681843D06025480160D068090674
:101410000143D16001201D49086002E010600220F4
:10142000087031BC70471F48416849004908416055
:101430000121164A1160104A11700168802252047D
:101440000A430260704778B40B4804210170144AC3
:101450000023DB4313600D4C0D0705E00026865783
:10146000022E02D101701360256000268657012EDE
:10147000F4D171BC7047000004E7FF1F0CE7FF1FA9
:1014800012F10F40001002400C81004000E100E02A
:1014900080E100E002010200120109000081004029
:1014A000A0900440088100409D21020008D5F44628
:1014B000524200F005F80122D207104360470000B5
:1014C0000AD002D4491E9218FCD5C905100A12068A
:1014D000524100D3012A484170470122D20703003C
:1014E0004B402ED4431A01D2C01AC91830B44B183D
:1014F0000418240E1B0E22D0FF2C20D0E31A182B28
:101500001DDC09021143C40D641E00021043944601
:101510001925ED1A0A00AA40D940451801D36D08D3
:10152000A41CE405D209280A2D062A436546AA41CF
:10153000604103181B0EFF2B01D3C00DC00530BC4A
:101540007047514001E05140CCE7431A03D2C01A22
:10155000C9185040514030B44B18090211430418C7
:10156000240E1B0E40D0FF2C3AD025009D410BD3FA
:101570001ED8C50D4002401A0BD3ED050100400AEC
:10158000C90591416841DAE7C50D40024918401A82
:10159000D5D001214008491C0018FCD58C4204D349
:1015A0006D1A000AED054019C9E7E8051040C6E7C5
:1015B000182DC4DCAC1C0D00E140E5414D40012D6F
:1015C0004941C40D00021043451A01D46D199543D9
:1015D000641EE405280A2D069541604130BC704721
:1015E000FF2BACD1D843AAE72442A8D10020A6E71C
:1015F00030B405004D400122D20715404B180418A5
:10160000240E28D01B0E2FD0FF2C34D0FF2B37D028
:10161000E41A000209021043114343084808D10D9F
:101620001B1A02D2641EDB181B18DB18834200D37E
:101630001B1A4941F9D37F3426DDFE2C08DAE40574
:101640004808C907194391416041284330BC70479D
:10165000FF20C005F9E728001B0E03D0FF2BF5D1B2
:101660004902F3D0D043F1E7FF2C01D14002F9D178
:10167000FF20C005E9E74002F4D1FF2BF8D1F1E7E4
:1016800028004902E2D0EDE70B0200202442DCD121
:101690005B129B1CD9D9D805D7E738B401210022A9
:1016A0000368001D002B0BD00468001D0C4202D003
:1016B0004D466D1E64192260241D1B1FF0D0FAE7F1
:1016C00032BC7047012212060118CA420AD28A426D
:1016D0000DD83822120609098918C20FD207114302
:1016E0004007704700D049080909014301E0C10FD4
:1016F000C90700207047F0B50E005E400125ED07D8
:101700002E40B446AE0ADF184C18F44208D2F74215
:101710000ED2640D01D07F0D12D100206146F0BDC4
:1017200005D1F74201D87F0D05D10020C143F0BD9E
:10173000FBD1640DF9D00020C143490549088FE071
:10174000E419C902DB0229432B43DB0A460DC00220
:1017500031438E4630B487B295B27D432E0CADB284
:10176000140C7C43A419260C240425439CB27C430E
:10177000A419190C7943270CC919A4B20F043C43CE
:10178000090C000C97B247432E0CBE193543ADB27D
:10179000170C4743360CBF19A6B2BF193E04354398
:1017A000240C3E0C36199FB24743BF19BCB23E0C05
:1017B00089191F0C47437F183E043443390C704687
:1017C00080B297B247432E0CBE193543ADB2170C09
:1017D0004743360CBF19A6B2BF193E043543240C4B
:1017E0003E0C36199FB24743BF19BCB23E0C891953
:1017F0001F0C47437F183E043443390C77463F0C97
:1018000090B278432E0C80190604ADB22E43050C1D
:10181000A0B22D18120C7A435019020C80B2240C7D
:10182000A4189AB27A43121914042043120C89188E
:101830001B0C7B43C91830BCEF0A394203D1B619DF
:1018400040414941641E6F12BF0DE41B0BDBFF19C1
:10185000BC4211DA240500274208AE4178416141BB
:1018600066463143F0BD641C05D1401C6141CF0286
:1018700001D34908F4E750E75DE7F0B40125ED072F
:101880000F005F404FD48B4200D1824205D984467D
:10189000100062468C4619006346DF184C18640D30
:1018A0007F0D3AD0661C760537D0E61B352E34DC2A
:1018B000DB022B43DB0A0C0DC9022943C912202E7F
:1018C0000DDB1700203E06D01F00F741F3405F40BC
:1018D0000026012A7741C01871410DD217E0170088
:1018E000F741F2405740F3415A40B340F3405A4069
:1018F0000026801859410AD3A21C52050FD0C207F6
:10190000012F724117004008CB0718434908641C97
:1019100024054208AF4170416141F0BC7047641C2E
:1019200021050020F9E76B4010E06B40ABE7F74280
:10193000F3D1E943F1E72442EFD100200021ECE7A5
:10194000F0B40125ED070F005F40EED40C00871ABC
:101950009C4105D2C01BA141D219634169406B4033
:10196000AE0ADF184C18F442E1D2640D7F0DE2D0CC
:10197000E61B362ED1DCDB022B43DB0AA4460C0D22
:10198000C9022943C90A012E28DC04D1D60752080E
:10199000DF073A435B08EF0A76429041994114D041
:1019A00039423BD1B61940414941761C394204D1F4
:1019B000761C001849413942FAD0B9436746B7420C
:1019C00008D9A41B24052143A7E70042EAD13642E7
:1019D000E8D1A2E7E40AE10700209EE7202E0BDD14
:1019E000203E1F00F340F7415F40012A002257418B
:1019F0007E42984191410BE01700F741F240574079
:101A0000F3415A40B340F3405A407E4290419941DD
:101A10000A0303D2641EB619404149410027641EDF
:101A200024054208AE4178416141F0BC7047012273
:101A300052054B18DA4201D9581570475B0D072241
:101A4000D2019B1A10D9FF2B1DD2DB050122D20730
:101A50000A4013430903020D1143490AC2005241CF
:101A600000D9491CC81870470AD1800A0A030243EA
:101A70005212921C04D9D3070B40D005184370476B
:101A8000C80FC0077047C80F0002FF30C00570477D
:101A900030B405004D400122D20715404B18041800
:101AA000240E30D01B0E34D0FF2C36D0FF2B3CD070
:101AB000E4180002090210431143000A090A94467F
:101AC000C2B24A43000AC3B24B43000A4843110A58
:101AD0005B18190A12061B0C1A43120A091801D4C2
:101AE0004918641E080A7F3C23DBFE2C08DAE40553
:101AF00009061143634699416041284330BC704751
:101B0000FF20C005F9E728001B0EFF2BF6D1D043BC
:101B1000F4E72800FF2CF1D1F9E74002F7D1FF2BC1
:101B200001D14902F3D1E005E7E7D8054902E4D045
:101B3000EDE743020020641CDFD15B129B1CDCD963
:101B4000D805DAE70122D2070118090E7F3910D42F
:101B500049421F310FD4001805D2C0011043C840BC
:101B600000D5D0437047C0011043C84005D440425F
:101B70007047002070470042F3D510007047000006
:101B80000CB4012212060318DA4207D84B18DA42C5
:101B900004D802000A43921802D281420CBC70475A
:101BA000FCD088420CBC70470CB40122120603180A
:101BB000DA4207D84B18DA4204D802000A439218D6
:101BC00002D288420CBC7047FCD08142FAE7F4464E
:101BD000002804D4494200F013F8404260474042D4
:101BE000002905D45FD000F00BF84042494260471D
:101BF000494200F005F84942604703460B43E6D4EA
:101C00000022030A8B420BD203098B4219D24308EC
:101C10008B422ED2411A00D20146524110467047E3
:101C2000FF2209023FD012068B4205D3121209028D
:101C30008B4201D31212090203098B4219D300E02F
:101C4000090AC3098B4201D3CB01C01A524183094F
:101C50008B4201D38B01C01A524143098B4201D3FD
:101C60004B01C01A524103098B4201D30B01C01A28
:101C70005241C3088B4201D3CB00C01A52418308A2
:101C80008B4201D38B00C01A524143088B4201D3CF
:101C90004B00C01A5241884200D3401A5241CFD261
:101CA00001461046704708B5C046C04608BD000052
:101CB00082B06946088076486B46694609880A18EA
:101CC0001A800029F9D102B0704780B501220121A4
:101CD0001120FFF7B3F9012201211020FFF7AEF91F
:101CE00043211120FFF7F8FA43211020FFF7F4FAFF
:101CF00001BDF0B482B08020400266490A68024308
:101D00000A60430013430B60C8235B006A461380DC
:101D1000421E6E466C462488A5183580002CF9D1E9
:101D20005D4C4D6925404D616D462B806F466D467B
:101D30002D88AE183E80002DF9D101250E69360C94
:101D40002E4016D04E6906434E610E6834400C603A
:101D50006C4623806E466B461B889C183480002B93
:101D6000F9D10A684D4B13400B600A69120C1540FB
:101D700004D04A6910434861002000E00120F6BC0D
:101D8000704738B5434C2168444808402060CC492E
:101D900001402160C8256D002800FFF789FF2068F9
:101DA00080218902014321602800FFF781FF20681C
:101DB00080214902014321602800FFF779FF31BDEE
:101DC00070B482B0354833490A6802400A604A69F3
:101DD000314B13404B61C82252006B461A80B94BFD
:101DE0006E466C462488E5183580002CF9D10C68C5
:101DF000C54325430D606C4622806D466A461288B5
:101E0000D4182C80002AF9D14B69802252021A433F
:101E10000B69DC03E40F4A610A6803D010400860D4
:101E2000002002E010400860012076BC7047F0B44A
:101E300082B008241649C8225200164B6F46641E11
:101E40001D68060602D54E1C2E4301E0124E2E40A0
:101E50001E6040006D462A806D462D886E183E80BB
:101E6000002DF9D11D688026B6022E431E606D46F6
:101E70002A806D462D886E183E80002DF9D11D6890
:101E8000064E2E401E60002CD9D1F3BC70470000D6
:101E9000FFFF000000F00F40FFFFFEFFFFFFFDFF10
:101EA00070B505000C000026FFF723FF002808D0BE
:101EB0004220FFF7BCFFFFF783FF002807D1FFF7A1
:101EC00060FF761CF6B2142EEED1002070BDE8B291
:101ED000FFF7ADFFFFF774FF2000FFF7A8FFFFF744
:101EE0006FFFFFF74EFF012070BDF8B505000F0032
:101EF00016001E2432003900280000F007F80028E0
:101F000002D1641EF6D1F2BD0120F2BDF3B581B05D
:101F10001400FFF7EEFE002800D18EE04220FFF70C
:101F200086FFFFF74DFF002800D184E02000FFF777
:101F30007EFFFFF745FFFFF724FFFFF7DAFE0028DB
:101F40007BD04320FFF773FFFFF73AFF002872D0E2
:101F500068460089002800D1ADE05A48C8214900F0
:101F6000594A6F46082300245569554E2E40566144
:101F70005B1E64001568554E2E4016606D46298024
:101F80006D462D882E183E80002DF9D115688026CB
:101F9000B6022E4316606D4629806D462D882E1898
:101FA0003E80002DF9D101251669360C2E4046D110
:101FB000002BDDD15369451C1D4355611368434D0A
:101FC0001D401560019B1C701468404B23406C46FB
:101FD0002489012C13606B4619806D4633D16B4602
:101FE0001B881C182C80002BF9D11368441C1C433F
:101FF00014606B4619806B461B881C182C80002BC4
:10200000F9D113688024A4021C4314606B46198024
:102010006B461B881C182C80002BF9D113682B4CA5
:102020001C4014606B4619806B461B881C182C8062
:10203000002B33D0F8E7FFF7A4FE00203EE0260097
:1020400001243443B4E76B461B881C182C80002BFA
:10205000F9D113681A4C1C4014606B4619806B460A
:102060001B881C182C80002BF9D113688024A40233
:102070001C4314606B4619806B461B881C182C800F
:10208000002BF9D11368114C1C4014606B46198069
:102090006B461B881C182C80002BF9D1019B5B1C04
:1020A00001936B461B891B186C4623816B461B8969
:1020B000002B00D056E7FFF764FE012003B0F0BD0F
:1020C000FFFFFEFFFFFF000000F00F40FFFFFDFFDE
:1020D00078B4802149020522094B0A4C00260028C9
:1020E0000BD0401E2568002DF9D01E605D609E60FB
:1020F0001A601D680D40F2D1FBE771BC704700000B
:1021000010E000E000FDFF1FF8B50C006B46182141
:102110005956012901D1012508E0022901D10225E2
:1021200004E0002901D1042500E00025294B5E6868
:102130009F0D37435F601E68022737431F60264BA1
:102140001F1800233B700001244B18188368802659
:1021500076041E438660046042600B05C022920331
:102160001A404B04C021C902194011431C4A0A43BA
:10217000C26007990902090A81606846007840092F
:102180003130802101433970164968460078FFF7E5
:102190008BF8A0094001103CE1004418E800201829
:1021A000461EF6B2E4B2A6420ED381256D0000228F
:1021B00000212000FEF742FF29002000FFF774F8FD
:1021C000641CE4B2A642F2D238784006400E387061
:1021D000F1BD00BF3C80044000100240008100407F
:1021E0008000086000010100000000000000000005
:1021F00000000A460000000000000100000000008E
:1022000000000000EFEEEE3EE17A143F0000000017
:1022100000000000000000000000000000000000BE
:1022200000000000000000000000000000000000AE
:10223000000000000000000000000000000000009E
:10224000000000000000000000000000000000008E
:102460000000000000F00FF840F00FF880F00FF8C7
:10247000C0F00FF800F10FF800000A1D3000030053
:1024800040000200420003094400030A480002031E
:102490005000020660000100800002188800010A56
:1024A0009400010DC800011ADC00011F00010000AA
:1024B0000090044000A0044000B0044000C004406C
:1024C00000D00440008003400090034000A003407F
:1024D00000A0064000B0064000C006400100000019
:1024E000000000000D81110009030CD01240173FBD
:1024F000185019031A783200A00A63E0ACFF650C8B
:102500006600670029142C1E2A007E0C7F16802A84
:10251000814E8261836F847B8586868E879788A4AF
:1025200089AF8AC58BD78CE88D204A0049134708AC
:102530004B144C17460522992303A6049B0043A085
:10254000AB069E119F0200003100000002009000C7
:102550007349085A521E0C2A00D3704710B56528DB
:1025600001DA002146E0C92801DA012142E0FF2218
:102570002E32904201DA02213CE06432904201DACC
:10258000032137E06432904201DA042132E0643200
:10259000904201DA05212DE06432904201DA0621F1
:1025A00028E06432904201DA072123E0643290424D
:1025B00001DA08211EE06432904201DA092119E0B3
:1025C0006432904201DA0A2114E06432904201DA66
:1025D0000B210FE06432904201DA0C210AE06432F0
:1025E000904201DA0D2105E06432904201DA0E21B9
:1025F00000E00F214B4C21702178491CFFF7FDFAB8
:1026000081B2292901DA002042E0512901DA0120B2
:102610003EE0792901DA02203AE0A12901DA03201B
:1026200036E0C92901DA042032E0F12901DA052077
:102630002EE0FF201A30814201DA062028E02830FF
:10264000814201DA072023E02830814201DA0820A4
:102650001EE02830814201DA092019E02830814249
:1026600001DA0A2014E02830814201DA0B200FE061
:102670002830814201DA0C200AE02830814201DA58
:102680000D2005E02830814201DA0E2000E00F2005
:10269000607010BD70B50400FFF758FF2248416B11
:1026A000420D0A4342631F490A7812074978090418
:1026B000E023DB020B401343036481211B4A1170AA
:1026C0001B4924224A70BA220A7010228B791342C5
:1026D000FCD10C228B791340082BFAD1A300104CAB
:1026E000E3181F259C782C400C714024DE7835407F
:1026F00025434D7120258E792E42FCD08D792542BF
:10270000FCD002240C708C7914400C2CFBD1016895
:10271000802252020A4302601888C0B270BD0000D5
:10272000A0E6FF1FD4E6FF1F0480044000500640CF
:1027300000400640F2B584B007006D4D002F03D075
:10274000022F4BD010D358E06A48016B020D0A43A8
:102750000263C026B60031000F20FEF7A5FD310050
:102760000E20FEF7A1FD4AE06248016BC20C0A434D
:102770000263C026B60031004320FEF795FD31000C
:102780004420FEF791FDB8005B490D182868C17818
:10279000F3220A40C27000202968887057480068F8
:1027A000FA218900484304990901FFF729FA84B204
:1027B00080208001844200DB441E28680178E022EA
:1027C0000A40E104C90E114301702868447028686A
:1027D000C1780C220A43C27005B0F0BD4548016BB8
:1027E000802252010A430263C026B60031006220F3
:1027F000FEF75AFD31006320C3E7002FC3D13D48E7
:1028000001683F4A0A40026001683E4A0A4302608A
:102810003F48C078F32101403D48C17000203C4949
:1028200088703948006839494843C10F081840107A
:102830000190042601980499721C5143FFF7E0F9B6
:1028400087B2390080208001814234DA701C029006
:102850000198029A5143FFF7D3F90499411A0129CB
:1028600002DB0499401A00E0484280B200281BD0E5
:10287000A84202DA05003C0000967F1CBFB2390076
:1028800080208001814216DA0198029A5143FFF7B5
:10289000B7F90499411A012902DB0499401A00E0B2
:1028A000484280B2002802D13C00009607E0A842CE
:1028B00001DA3C000096761CF6B2212EBADB1448F1
:1028C0000278E0201F21024023041B0E0B4013431B
:1028D0000F4A13705470927A1040009A11400143CD
:1028E0000B488172C0780C2101430948C17073E71D
:1028F000FFFF000004800440F8E6FF1F08FDFF1FF3
:10290000FFFFFFF300000104FCFCFF1F40420F002B
:1029100000A0064080B500F069F800F02BF800F048
:1029200003F8FDF779FDFEE738B5082022490A785B
:10293000024202D00A7810430870204C0B20FFF7A7
:10294000A9FE20601E4D2968090F491CFFF758F9A0
:10295000A060FA2189004843606029684903490F53
:10296000491CFFF74DF9E060E12149020020FFF723
:10297000E1FE31BD10B51349134C8C4204D08222C4
:10298000D200200000F054F82000FEF781FC0F492F
:102990000F48421A02D00F4800F036F80E480F498F
:1029A000091A01D000F080F80D490E48421A02D0F1
:1029B0000D4800F029F810BD02D00740FCFCFF1FB5
:1029C000448004400000000000E0FF1FE8210000F8
:1029D0004C25000010E4FF1F74E7FF1F0CFDFF1FD4
:1029E00010040000100400000CFDFF1F05480168E2
:1029F000034A116001680C22914301607047000096
:102A0000F8FCFF1F00810440124207D08B0706D05C
:102A10000B78491C0370401C521EF7D8704783077F
:102A200006D00B78491C0370401C521EF9D1704728
:102A300070B4103A03D378C9103A78C0FBD2530768
:102A400001D318C918C001D508C908C0D20704D3DA
:102A50000B880380891C801C002A01D50B78037029
:102A600070BC7047094205D0830705D00270401C36
:102A7000491EF9D170470000130030B4140015004E
:102A8000103902D310393CC0FCD2490700D30CC026
:102A900000D504C0890002D30280801C002900D523
:102AA000027030BC704700000022DBE70022E3E741
:102AB00010B5074979441831064C7C44163404E0BB
:102AC000081D0A68891888470100A142F8D110BD85
:102AD0000800000014000000C3EBFFFF9815000081
:102AE00074E7FF1F000000000120C046002801D04D
:102AF000FFF7DEFF0020C046C046FDF78DFC00F06A
:102B000000F880B500F002F801BD00000746384625
:102B100000F002F8FBE7000080B5C046C046024A5C
:102B200011001820ABBEFBE726000200C046C046DD
:0A2B3000C046C046FFF7D8FF70470B
:0400000500002B2D9F
:00000001FF
